:100000000C94B5000C94DE000C94DE000C94DE0021
:100010000C94DE000C94DE000C94DE000C94850839
:100020000C94DE000C94DE000C9469050C94DE0048
:100030000C94DE000C946E080C941D070C94DE00EA
:100040000C94F9060C94DE000C94DE000C94DE0097
:100050000C94DE000C94DE000C94DE000C94DE00A8
:100060000C94DE000C94DE006E616E00696E66001A
:1000700000407A10F35A00A0724E18090010A5D45F
:10008000E80000E87648170000E40B54020000CABC
:100090009A3B000000E1F505000080969800000002
:1000A00040420F000000A086010000001027000061
:1000B0000000E803000000006400000000000A00E7
:1000C000000000000100000000002C76D888DC67EA
:1000D0004F0823DFC1DFAE59E1B1B796E5E3E45342
:1000E000C63AE651997696E8E6C28426EB898C9B5F
:1000F00062ED407C6FFCEFBC9C9F40F2BAA56FA5FF
:10010000F490055A2AF75C936B6CF9676DC11BFC80
:10011000E0E40D47FEF520E6B500D0ED902E03009B
:10012000943577050080841E080000204E0A0000E8
:1001300000C80C333333330F986E12831141EF8DA7
:100140002114893BE65516CFFEE6DB18D1844B38E7
:100150001BF77C1D901DA4BBE424203284725E2218
:100160008100C9F124ECA1E53D2711241FBECFEF8A
:10017000D8E0DEBFCDBF14BE0FB6F894A89580912D
:100180006000886180936000109260000FBE11E0F3
:10019000A0E0B1E0EAE1FEE102C005900D92A236D6
:1001A000B107D9F722E0A2E6B1E001C01D92AA365C
:1001B000B207E1F70E9489040C940B0F0C94000025
:1001C000ADE0B0E0E6EEF0E00C94E90B7C013B0121
:1001D0005A01FC0117821682838181FF45C3F70112
:1001E0002381F30123FD859123FF81913F01811537
:1001F00009F441C0853239F423FD959123FF919193
:100200003F01953239F4B70190E00E943B0E650141
:100210005601E5CF10E0912C812CF0E28F1608F00A
:100220003CC09B3279F160F4903271F1933291F1DC
:100230009E3209F048C086FC1EC0689486F806C04D
:100240009D3229F1903359F5689480F8F30123FD2C
:10025000959123FF91913F019111DFCF082D097FE7
:10026000903709F4C3C208F0B9C2983509F4C0C286
:100270009F3609F4C2C2F701868197812D96E2E18B
:100280000C94050C689481F8689482F8DFCF689428
:1002900083F8DCCF689484F8D9CF87FC1CC080ED4C
:1002A000890F8A3028F686FE06C03AE0139F800D3B
:1002B0001124182FCBCF4AE0949E800D1124982E44
:1002C000689485F8C3CF9C3619F4689487F8BECF3C
:1002D000983609F4BBCF8BEB890F833008F041C00F
:1002E000689484F8905E86FE16E0582D5F73852E24
:1002F000953609F03EC0689486F887FE44C0812F89
:100300001C3308F08BE322242394280E27E0F50108
:1003100061917191819191916F01022DAE014F5FB9
:100320005F4F0E944D0D5C01498040FE03C00DE20D
:1003300043FE09C00BE281FC06C082FA002700F9E7
:100340000295000F007EF42DFC705F2EF115C1F1B7
:1003500001118DC224E0512C921608F49FC283E053
:100360008BC28BE9890F833008F041C1E89484F88F
:10037000BACF963619F4689487F8BFCF111509F4EF
:10038000BCCF1150BACF212F183010F027E017E062
:10039000212CBDCF81108052B70190E00E943B0E0E
:1003A0000F5F1F4FF80184918111F4CF511409F4AC
:1003B0002FCFB70180E290E00E943B0E5A94F6CF17
:1003C00087FE32C0822D8A0D44FE04C09A8191338B
:1003D00009F4815022242394181634F4282EF9E0CD
:1003E0008F1710F088E0282E87FE46C0C501B7FEA3
:1003F00002C080E090E0019601110196111531F0E4
:10040000212F30E02F5F3F4F820F931F89159105F9
:1004100014F4592C581A882D8970811137C0511045
:100420002EC00115E1F134C086FCDECFE12FF0E0F3
:100430001A151B043CF02CEFA2162FEFB20614F095
:10044000689487F8329641E050E04C0F5D1FE40F4E
:10045000F51F01C01150111519F082918033D1F3AD
:1004600087FE0AC022242394210EA116B10414F49D
:100470001A19BACF10E0B8CF85E090E0BDCFB70130
:1004800080E290E00E943B0E5A94C9CF011529F0FA
:10049000B701802F90E00E943B0E83FC02C05110F8
:1004A0003EC087FE56C04501B7FE02C0812C912C8C
:1004B000C50188199909E1E0F0E0EC0FFD1FE80F94
:1004C000F91FFD87EC879501221931091901012FC8
:1004D00010E0119501951109A814B9043CF12814F4
:1004E000390424F5EC85FD858181F1E08F1A9108AE
:1004F0002C853D852F5F3F4F3D872C8780169106C9
:10050000BCF0B70190E00E943B0E3FEF83169306CC
:1005100019F7B7018EE290E00E943B0EDDCFB701E4
:1005200080E390E00E943B0E5A94B9CF80E3DDCF88
:10053000A814B90439F49A81963348F4953311F428
:1005400044FE05C0B70190E00E943B0E2FCF81E32F
:10055000F9CF8A81813311F0E89444F8B70190E033
:100560000E943B0E111125C085E490E084FC02C07E
:1005700085E690E0B7010E943B0EB7FC05C0A114D0
:10058000B10471F544FE2CC0B194A194B1088DE280
:10059000B70190E00E943B0E80E35AE0A516B1043B
:1005A0000CF5B70190E00E943B0EB701C501C09663
:1005B000CBCFB7018EE290E00E943B0E1E5F02E0BF
:1005C000802F0F5FE1E0F0E0EC0FFD1FE80FF11D61
:1005D0008081B70190E00E943B0E0113F1CFC4CFA0
:1005E0008BE2D6CF8F5F4AE0A41AB108D6CF9336FC
:1005F00009F482C0933709F495C0933509F4A1C07A
:10060000943619F0993609F0CEC0F50187FEC3C0C3
:1006100061917191819191916F01F82DFF768F2EEB
:1006200097FF09C090958095709561957F4F8F4F8A
:100630009F4F689487F82AE030E0AE014F5F5F4F2C
:100640005A010E94AD0EB82EBA185B2C082D86FEFA
:100650000AC00E7FB11638F484FE04C082FC02C0CA
:10066000082D0E7E512E04FFD8C0FE01EB0DF11DAA
:100670008081803309F0CAC0097E03FD0EC000FFEF
:10068000DBC01B2D591418F4190D1519592C892D7F
:100690008519951408F480E0580E591408F0CEC05E
:1006A0009518592C04FFCCC0B70180E390E00E945C
:1006B0003B0E02FF09C088E590E001FD02C088E71B
:1006C00090E0B7010E943B0EB11608F4C6C0BA9480
:1006D0000B2D10E00F5F1F4FCE0101965C01080F3C
:1006E000191FF80182918F01B70190E00E943B0E23
:1006F000A016B106B1F75ACE650182E0C80ED11C32
:10070000F5018081898301E010E09E012F5F3F4F5A
:100710005901E89487F883FC03C00915110510F10D
:10072000592C35C0F501A190B1906F01612F70E097
:1007300086FC02C06FEF7FEFC5010E94300E8C0176
:10074000E8CFF501A190B1906F01612F70E086FCB8
:1007500002C06FEF7FEFC5010E94250E8C016894E7
:1007600087F8D9CFB70180E290E00E943B0E9A94BF
:10077000D4CFF50187FC859187FE81915F01B70198
:1007800090E00E943B0E51105A940150110901153E
:10079000110579F70BCE619171916F01072E000C55
:1007A000880B990B3ACF082D0F7E2AE030E0953761
:1007B00009F054CDF50107FF23C06191719181913A
:1007C00091916F01AE014F5F5F4F5A010E94AD0ED4
:1007D000B82EBA18802EE89487F837CF983709F0EA
:1007E0004ACD04FD046020E130E0E4CF0061F9CFA0
:1007F00084FC066020E132E0DDCF28E030E0DACF93
:10080000619171916F0180E090E0DCCF02FD02C048
:10081000539433CF5394539430CF802F86788115DF
:1008200009F42BCFF5CFB70180E290E00E943B0E98
:10083000A394A914C0F32BCFA52CFBCF512C32CFFE
:10084000802F8678811509F43FCF80E201FD8BE28D
:1008500007FD8DE2B70190E035CFB70180E390E06E
:100860000E943B0E115030CF8FEF9FEF07CDF5E088
:10087000512C9F1670F084E0592C581A83FC07C045
:10088000B70180E290E00E943B0E5A94C9F701152F
:1008900029F0B701802F90E00E943B0E08E610E09F
:1008A00043FC02C00CE610E0282D2071822E7ACD88
:1008B00080913902823069F038F4811509F1813074
:1008C00011F58DE291E007C0833001F58EE391E0F0
:1008D00002C088E391E020913A0230913B023F93BD
:1008E0002F939F938F938AE491E09F938F930E941D
:1008F0006B0E0F900F900F900F900F900F90089528
:1009000087E291E0E8CF86E591E0E5CF86E591E0EA
:10091000E2CF0E9426090E94DB0862E084E00E9488
:10092000840662E082E00E94840647E065E086E09B
:100930000E94640BC82FD92F80E680937C0085EE3F
:1009400080937A0087E080937B0081E080937E0033
:1009500080EA8093800081E18093810080E280932F
:100960006F00109287008FEF8093860084B18660BD
:1009700084B97894109239020E945804EA81FB816C
:10098000CE01099584E00E945606811519F182E096
:100990000E945606811509F445C0EE85FF85CE01FB
:1009A0000995892B09F069C0EC85FD85CE01099573
:1009B000892B09F078C0EC89FD89CE010995892B36
:1009C000E9F21092390210923B0210923A020E9410
:1009D0005804D4CF0E94EF0800916C0110916D0172
:1009E00020916E0130916F01601B710B820B930B94
:1009F000643F71408105910550F20E94EF086093B9
:100A00006C0170936D0180936E0190936F018091E2
:100A1000390290E0019683709078809339020E94A9
:100A20005804B5CF0E94EF0800916C0110916D0140
:100A300020916E0130916F01601B710B820B930B43
:100A4000643F71408105910508F4A7CF0E94EF082B
:100A500060936C0170936D0180936E0190936F01B0
:100A600080913902815080933902809139028370DC
:100A7000809339020E94580490CF80913A0290915D
:100A80003B02019790933B0280933A028091390296
:100A900081508093390280913902837080933902AA
:100AA0000E94580481CF80913A0290913B020196B6
:100AB00090933B0280933A02809139028F5F80933A
:100AC0003902809139028370809339020E94580460
:100AD00072CF1F920F920FB60F9211242F933F9354
:100AE0004F935F938F939F93EF93FF933091780091
:100AF000432F50E05093410240934002909179007F
:100B0000892F90E090933F0280933E02209139021A
:100B1000223009F454C0D0F4211581F1213009F0BC
:100B200074C0982F8827832B952B905890933D0263
:100B300080933C0220910801309109012817390760
:100B400030F530933D0220933C0221C0233009F060
:100B50005CC0982F8827832B952B905890933D024B
:100B600080933C022091060102C0959587952A95B5
:100B7000E2F790933D0280933C0209C0982F8827AA
:100B8000832B952B905890933D0280933C0280914B
:100B90003C0290913D0290589093880080913C02D5
:100BA00080938A00FF91EF919F918F915F914F9178
:100BB0003F912F910F900FBE0F901F90189520918D
:100BC0007001E22FF0E0EF58FE4F30832F5F20934B
:100BD000700130910701231710F010927001E0911D
:100BE0007001F0E0EF58FE4F208130E0322F2227D5
:100BF000242B352B982F8827842B952B820F931F1E
:100C000090933D0280933C02C2CF382F2227242BA1
:100C1000352BC901905890933D0280933C02B7CF89
:100C2000282F883020F08E3070F080E0089599B140
:100C3000892F90E002C0959587952A95E2F721E0EB
:100C4000822781700895285093B1892F90E002C0C7
:100C5000959587952A95E2F721E08227817008957E
:100C60000F931F93CF93DF93C82FD0E08E010E5BBD
:100C70001D4FF8018081880F8083FE01EE0FFF1F5A
:100C8000EC5BFD4F80810E941006F8019081892B5A
:100C90008083877C873031F080E0DF91CF911F9196
:100CA0000F9108958FEF808381E0F7CF883020F097
:100CB0008E30B0F08FEF089529B130E041E050E080
:100CC000082E02C0440F551F0A94E2F7242335234F
:100CD000A90102C0559547958A95E2F7CA01089582
:100CE00028EF280F83B190E041E050E0022E02C0CF
:100CF000440F551F0A94E2F78423952302C095956B
:100D000087952A95E2F708958830B8F561110FC0EC
:100D10004AB121E030E0F90102C0EE0FFF1F8A95D1
:100D2000E2F7CF01809584238AB9862F0895613038
:100D300021F0623079F081E008959AB121E030E04D
:100D400002C0220F331F8A95E2F7892F822B8AB9BE
:100D500080E008954AB121E030E0B90102C0660F99
:100D6000771F8A95E2F7CB01962F909594239AB935
:100D70009BB1892B8BB980E008958E30C0F58850E7
:100D800061110FC044B121E030E0F90102C0EE0F63
:100D9000FF1F8A95E2F7CF018095842384B9862FBF
:100DA0000895613021F0623079F081E0089594B1C6
:100DB00021E030E002C0220F331F8A95E2F7892F2D
:100DC000822B84B980E0089544B121E030E0B9017C
:100DD00002C0660F771F8A95E2F7CB01962F909598
:100DE000942394B995B1892B85B980E0089580E06A
:100DF00008951F920F920FB60F9211242F933F93D5
:100E00008F93EF93FF938091670221E030E002C05F
:100E1000220F331F8A95E2F7E0916802F091690290
:100E20008081822B8083FF91EF918F913F912F9151
:100E30000F900FBE0F901F9018951F920F920FB634
:100E40000F9211242F933F934F935F938F939F9310
:100E5000EF93FF938091600290E0FC01EE0FFF1F83
:100E6000E80FF91FEE0FFF1FEE0FFF1FE85BFD4FAE
:100E70008381813009F4A2C02091600230E0C90171
:100E8000880F991FFC01E20FF31FEE0FFF1FEE0FFB
:100E9000FF1FE85BFD4F42855385FC01E20FF31F06
:100EA000EE0FFF1FEE0FFF1FE85BFD4F4150510992
:100EB000538742878091600290E0FC01EE0FFF1F94
:100EC000E80FF91FEE0FFF1FEE0FFF1FE85BFD4F4E
:100ED00082859385892B09F05AC08091600290E049
:100EE000FC01EE0FFF1FE80FF91FEE0FFF1FEE0FC3
:100EF000FF1FE85BFD4F81E083838091600290E0FB
:100F0000FC01EE0FFF1FE80FF91FEE0FFF1FEE0FA2
:100F1000FF1FE85BFD4F808121E030E002C0220F1F
:100F2000331F8A95E2F78091600290E0FC01EE0F9A
:100F3000FF1FE80FF91FEE0FFF1FEE0FFF1FE85B0B
:100F4000FD4F0180F281E02D8081822B80832091F2
:100F500060028091600290E030E0F901EE0FFF1F27
:100F6000E20FF31FEE0FFF1FEE0FFF1FE85BFD4FB9
:100F700026813781FC01EE0FFF1FE80FF91FEE0FEE
:100F8000FF1FEE0FFF1FE85BFD4F33872287809125
:100F900060028F5F8093600280916002823009F46A
:100FA0009AC0FF91EF919F918F915F914F913F91E7
:100FB0002F910F900FBE0F901F90189520916002F7
:100FC00030E0C901880F991FFC01E20FF31FEE0FFB
:100FD000FF1FEE0FFF1FE85BFD4F40855185FC01B1
:100FE000E20FF31FEE0FFF1FEE0FFF1FE85BFD4F39
:100FF00041505109518740878091600290E0FC0187
:10100000EE0FFF1FE80FF91FEE0FFF1FEE0FFF1F80
:10101000E85BFD4F80859185892B09F0B8CF8091E1
:10102000600290E0FC01EE0FFF1FE80FF91FEE0FCA
:10103000FF1FEE0FFF1FE85BFD4F138280916002E0
:1010400090E0FC01EE0FFF1FE80FF91FEE0FFF1FEE
:10105000EE0FFF1FE85BFD4F208181E090E002C0B2
:10106000880F991F2A95E2F780959095209160024C
:1010700030E0F901EE0FFF1FE20FF31FEE0FFF1F2D
:10108000EE0FFF1FE85BFD4F0180F281E02D9081A4
:1010900089238083209160028091600290E030E09B
:1010A000F901EE0FFF1FE20FF31FEE0FFF1FEE0F10
:1010B000FF1FE85BFD4F24813581FC01EE0FFF1F10
:1010C000E80FF91FEE0FFF1FEE0FFF1FE85BFD4F4C
:1010D000318720875CCF1092600263CF1F920F92FE
:1010E0000FB60F9211248F939F9380916502909178
:1010F0006602019690936602809365029F918F919C
:101100000F900FBE0F901F9018951F920F920FB661
:101110000F9211240F931F932F933F934F935F933D
:101120006F937F938F939F93AF93BF93CF93EF93DF
:10113000FF938091610290916202A0916302B0914D
:1011400064020196A11DB11D809361029093620219
:10115000A0936302B093640280910A01815080934E
:101160000A01C0910A01C11501F1FF91EF91CF91E0
:10117000BF91AF919F918F917F916F915F914F91AF
:101180003F912F911F910F910F900FBE0F901F90C5
:1011900018950C2F10E08C2F0E943006000F111FA5
:1011A000F801EC5BFD4F8183CF5FC23090F381E0AB
:1011B00080930A01DACFE0EBF0E0808181608083E8
:1011C000E1EBF0E080818B6080838FEF8093B30050
:1011D000E0E7F0E0808182608083789408952FB703
:1011E000F894609161027091620280916302909123
:1011F00064022FBF0895CF93C82F8A3051F0909189
:10120000C00095FFFCCFC093C60080E090E0CF9176
:1012100008958DE00E94FB08F2CF8091C0008115F7
:10122000E4F78091C60090E008951092C50083E035
:101230008093C400E0ECF0E080818D7F808386E0C5
:101240008093C20088E18093C10008950E9415092F
:10125000E6E6F1E089E191E0938382838BE091E01F
:10126000918380830895DC01ED91FC91848160FB82
:1012700081F984830895CF93DF93C82FD92FEA8112
:10128000FB81CE010995E881F981838180FD05C04C
:1012900080E090E0DF91CF9108958E7F838381E09D
:1012A00090E0F8CFE82FF92FA081B18113968C91AF
:1012B00013978E7F13968C93A081B18113968C9196
:1012C00013978D7F13968C93A081B18113968C9187
:1012D00013978B7F13968C93A081B18113968C9179
:1012E0001397877F13968C93A081B18113968C916D
:1012F00013978F7E13968C93A081B18113968C9156
:1013000013978F7D13968C93A081B18113968C9146
:1013100013978F7B13968C93A081B18113968C9138
:1013200013978F7713968C93A081B18114968C912B
:1013300014978E7F14968C93A081B18114968C9112
:1013400014978D7F14968C930190F081E02D848109
:101350008B7F84830895CF93DF93C82FD92FEA81A1
:10136000FB81CE010995E881F9818581843029F0DE
:1013700080E090E0DF91CF910895158281E090E0C8
:10138000F9CFCF93DF93C82FD92FEA81FB81CE010C
:101390000995E881F9818581833029F080E090E02A
:1013A000DF91CF910895158281E090E0F9CFCF933E
:1013B000DF93C82FD92FEA81FB81CE010995E881FF
:1013C000F981838183FD05C080E090E0DF91CF91BA
:1013D0000895877F838381E090E0F8CFCF93DF93F8
:1013E000C82FD92FEA81FB81CE010995E881F981C7
:1013F000838184FD05C080E090E0DF91CF91089566
:101400008F7E838381E090E0F8CF0E94EE090895FB
:10141000CF93DF93C82FD92FEA81FB81CE010995A5
:10142000E881F981838186FD05C080E090E0DF914D
:10143000CF9108958F7B838381E090E0F8CFCF93A5
:10144000DF93C82FD92FEA81FB81CE010995E8816E
:10145000F981838181152CF080E090E0DF91CF91BC
:1014600008958F77838381E090E0F8CFCF93DF9367
:10147000C82FD92FEA81FB81CE010995E881F98136
:10148000848180FD05C080E090E0DF91CF910895D8
:101490008E7F848381E090E0F8CF1F93CF93DF931A
:1014A000C82FD92F672B89F010E0E881F981612FCF
:1014B00080810E948406E881F981612F81810E94E8
:1014C0008406DF91CF911F91089512E0EECFE82FAF
:1014D000F92F672B41F060E00190F081E02D8281CF
:1014E0000E948406089562E0F7CFCF93DF93C82F60
:1014F000D92FEA81FB81CE010995E881F9818581A7
:10150000823029F080E090E0DF91CF91089587E567
:1015100091E00E94810EE881F981158281E090E0DE
:10152000F3CFCF93DF93C82FD92FEA81FB81CE0170
:101530000995E881F9818581813029F080E090E08A
:10154000DF91CF9108958DE591E00E94810EE881B1
:10155000F981158281E090E0F3CF8F929F92AF9254
:10156000BF92CF92DF92EF92FF920F931F93CF9390
:10157000DF93C82FD92F0E94EF08C62ED72EE82E52
:10158000F92EE881F98186819781A085B185460190
:101590005701881A990AAA0ABB0A8381806183834A
:1015A000E881F98183818F7D8383E881F98183815B
:1015B0008F7B8383E881F98180810E945606182FF2
:1015C000E881F98181810E945606110F182BE8816C
:1015D000F9810285000F000F012B82810E945606BF
:1015E00081111BC080E588169104A104B104A8F004
:1015F000E881F981838188608383E881F98183812F
:1016000080628383E881F981C682D782E086F18691
:10161000E881F98183818E7F83830D3051F104301D
:1016200041F1023031F10B3021F10E3031F0073051
:1016300021F0013011F00830B9F585EF881681E00E
:101640009806A104B10480F1E881F9818381816069
:101650008383E881F981838184608383E881F981D0
:10166000C682D782E086F186E881F98182E08583AF
:101670001BC085EF881681E09806A104B104A8F28A
:10168000E881F981838181608383E881F9818381A5
:1016900082608383E881F981C682D782E086F18601
:1016A000E881F98181E08583E881F9811287DF9102
:1016B000CF911F910F91FF90EF90DF90CF90BF904F
:1016C000AF909F908F900895DF92EF92FF920F93CB
:1016D0001F93CF93DF93D82EE62EF42E8BE090E06D
:1016E0000E94200C082F192F82E290E00E94200C0B
:1016F000C82FD92FF801D082E18215821682178275
:1017000010861186F28262E08F2D0E948406198372
:1017100008838DEA9AE09B838A838DE49AE09D8317
:101720008C8387E69AE09F838E8383E399E0998791
:1017300088878BE399E09B878A8785E79AE09D8776
:101740008C8781E99AE09F878E878BEA99E0998B55
:10175000888B81EC99E09B8B8A8B87ED99E09D8B40
:101760008C8B8EEE99E09F8B8E8B85E09AE0998F23
:10177000888F88E09AE09B8F8A8F8FE19AE09D8F17
:101780008C8F86E39AE09F8F8E8F82E599E099A3F4
:1017900088A362E0F80180810E94840662E0F8017B
:1017A00081810E948406F80180810E945606F82EED
:1017B000F80181810E945606FF0CF82AF801F28692
:1017C000CE01DF91CF911F910F91FF90EF90DF90AD
:1017D00008952F923F924F925F926F927F928F92D5
:1017E0009F92AF92BF92CF92DF92EF92FF920F93B0
:1017F0001F93CF93DF93CDB7DEB7CA1BDB0B0FB6BA
:10180000F894DEBF0FBECDBF09942A883988488876
:101810005F846E847D848C849B84AA84B984C8840C
:10182000DF80EE80FD800C811B81AA81B981CE0F03
:10183000D11D0FB6F894DEBF0FBECDBFED010895E8
:101840000F931F93CF93DF939C01029710F422E034
:1018500030E0E0916201F091630180E090E0A0E06F
:10186000B0E0309791F4009709F448C0821B930BC5
:1018700084309105D0F58A819B816115710581F1D4
:10188000FB0193838283FE0111C04081518102815B
:10189000138142175307D8F04217530799F4109752
:1018A00061F012960C93129713961C933296CF0107
:1018B000DF91CF911F910F910895009362011093D2
:1018C0006301F4CF009751F04817590738F0AC0185
:1018D000DB01CA01BD01DF01F801C3CFEF01F9CF80
:1018E0009093630180936201CECFFE01E80FF91F50
:1018F00021933193029799838883D9CF8091640192
:1019000090916501892B41F480910201909103012E
:101910009093650180936401809100019091010191
:10192000009741F48DB79EB7409104015091050195
:10193000841B950B4091640150916501481759072C
:1019400008F0B5CF841B950B8217930708F4AFCF2F
:10195000B9016E5F7F4F8617970708F4A8CF640F11
:10196000751F7093650160936401FA0121933193AF
:101970009ECFCF93DF939C010097D9F0FC01329763
:1019800013821282C0916201D0916301209709F005
:1019900058C080819181280F391F809164019091F6
:1019A00065018217930709F06DC0F0936501E0931C
:1019B0006401DF91CF910895AE17BF0708F048C0CA
:1019C000CD0112960D90BC91A02D1097A9F7DC01C6
:1019D0001396FC93EE9312974D915D919D01240F08
:1019E000351FE217F30781F4208131812E5F3F4FCD
:1019F000240F351FDC0111963C932E9322813381F5
:101A000013963C932E931297E0E0F0E08A819B813D
:101A10000097E9F5DE018D919D918A0F9B1F209122
:101A20006401309165012817390719F6309791F54F
:101A30001092630110926201D0936501C09364011A
:101A4000B8CFDE0180E090E0CE17DF0708F4B8CF12
:101A5000B383A28340815181240F351FA217B3079E
:101A600071F44E5F5F4F2D913C911197240F351FFC
:101A70003183208312962D913C91338322830097EA
:101A800009F0A5CFF0936301E093620192CFFE01CC
:101A9000EC01BCCF13821282CFCF283008F027E0B0
:101AA0003327DA01990F311D87FD9160009661059A
:101AB000710539F432602E5F3D9330E32A95E1F7EA
:101AC00008959F3F30F080387105610509F03C5F53
:101AD0003C5F3D93913008F08068911DDF93CF9378
:101AE0001F930F93FF92EF92192F987F9695E92FEE
:101AF00096959695E90FFF27E653FF4F99273327D1
:101B0000EE24FF24A701E70105900894079428F428
:101B1000360FE71EF81E491F511D660F771F881FDD
:101B2000991F0694A1F70590079428F4E70EF81E74
:101B3000491F561FC11D770F881F991F661F0694E6
:101B4000A1F70590079428F4F80E491F561FC71FE8
:101B5000D11D880F991F661F771F0694A1F7059066
:101B6000079420F4490F561FC71FD81F990F661FEF
:101B7000771F881F0694A9F784911095177041F07C
:101B8000D695C79557954795F794E7941A95C1F759
:101B9000E0E7F0E068941590159135916591959185
:101BA00005907FE27395E118F10A430B560BC90BC0
:101BB000D009C0F7E10CF11E431F561FC91FD01DED
:101BC0007EF4703311F48A95E6CFE894015030F03A
:101BD000080F0AF40027021708F4202F2395022F7C
:101BE0007A3328F079E37D932A95E9F710C07D9345
:101BF0002A9589F6069497956795379517951794C2
:101C0000E118F10A430B560BC90BD00998F0239544
:101C10007E9173957A3308F070E37C932013B8F7C4
:101C20007E9170617D9330F0839571E37D9370E3D5
:101C30002A95E1F71124EF90FF900F911F91CF911A
:101C4000DF91992787FD90950895FC0105906150DB
:101C500070400110D8F7809590958E0F9F1F0895C2
:101C6000FC016150704001900110D8F7809590956B
:101C70008E0F9F1F08950F931F93CF93DF93182FFD
:101C8000092FEB018B8181FD09C01FEF0FEF812F21
:101C9000902FDF91CF911F910F91089582FF14C073
:101CA0002E813F818C819D81281739073CF4E88182
:101CB000F981CF0101969983888310838E819F815A
:101CC00001969F838E83E3CFE885F985812F09955F
:101CD000892BA1F3DACFA0E0B0E0E1E7FEE00C94BD
:101CE000F90BAE014B5F5F4FFA0161917191AF014A
:101CF00080916801909169010E94E000E2E00C94FB
:101D0000150C0F931F93CF93DF93E0916801F0912F
:101D10006901238100E010E021FD0EC00FEF1FEFED
:101D2000C801DF91CF911F910F9108950995892BDB
:101D300011F00FEF1FEFCE01EC0189916091680166
:101D400070916901DB011896ED91FC918111EECF44
:101D50008AE00995892B21F3E1CFFA01AA272830DF
:101D600051F1203181F1E8946F936E7F6E5F7F4F68
:101D70008F4F9F4FAF4FB1E03ED0B4E03CD0670FE4
:101D8000781F891F9A1FA11D680F791F8A1F911D37
:101D9000A11D6A0F711D811D911DA11D20D009F487
:101DA00068943F912AE0269F11243019305D3193C9
:101DB000DEF6CF010895462F4770405D4193B3E0B2
:101DC0000FD0C9F7F6CF462F4F70405D4A3318F059
:101DD000495D31FD4052419302D0A9F7EACFB4E00A
:101DE000A6959795879577956795BA95C9F70097C2
:101DF0006105710508959B01AC010A2E0694579563
:101E0000479537952795BA95C9F7620F731F841FB9
:0A1E1000951FA01D0895F894FFCF60
:101E1A0000006A02200002C87017010000000100D9
:101E2A0000000000000D0900000000000200000090
:101E3A0000FB0800000000636C65616E0064697352
:101E4A00746F7274696F6E0064656C61790062699F
:101E5A0074206372757368657200653A2025730A87
:101E6A00633A2025640A007269676874006C6566C3
:021E7A007400F2
:00000001FF
