:100000000C94B5000C94DE000C94DE000C94DE0021
:100010000C94DE000C94DE000C94DE000C94D908E5
:100020000C94DE000C94DE000C94BD050C94DE00F4
:100030000C94DE000C94C2080C9471070C94DE0042
:100040000C944D070C94DE000C94DE000C94DE0042
:100050000C94DE000C94DE000C94DE000C94DE00A8
:100060000C94DE000C94DE006E616E00696E66001A
:1000700000407A10F35A00A0724E18090010A5D45F
:10008000E80000E87648170000E40B54020000CABC
:100090009A3B000000E1F505000080969800000002
:1000A00040420F000000A086010000001027000061
:1000B0000000E803000000006400000000000A00E7
:1000C000000000000100000000002C76D888DC67EA
:1000D0004F0823DFC1DFAE59E1B1B796E5E3E45342
:1000E000C63AE651997696E8E6C28426EB898C9B5F
:1000F00062ED407C6FFCEFBC9C9F40F2BAA56FA5FF
:10010000F490055A2AF75C936B6CF9676DC11BFC80
:10011000E0E40D47FEF520E6B500D0ED902E03009B
:10012000943577050080841E080000204E0A0000E8
:1001300000C80C333333330F986E12831141EF8DA7
:100140002114893BE65516CFFEE6DB18D1844B38E7
:100150001BF77C1D901DA4BBE424203284725E2218
:100160008100C9F124ECA1E53D2711241FBECFEF8A
:10017000D8E0DEBFCDBF14BE0FB6F894A89580912D
:100180006000886180936000109260000FBE11E0F3
:10019000A0E0B1E0E0EDF6E102C005900D92A434DC
:1001A000B107D9F722E0A4E4B1E001C01D92AC345C
:1001B000B207E1F70E9477040C94660B0C940000E0
:1001C000ADE0B0E0E6EEF0E00C9487097C013B0185
:1001D0005A01FC0117821682838181FF45C3F70112
:1001E0002381F30123FD859123FF81913F01811537
:1001F00009F441C0853239F423FD959123FF919193
:100200003F01953239F4B70190E00E94AC0A6501D4
:100210005601E5CF10E0912C812CF0E28F1608F00A
:100220003CC09B3279F160F4903271F1933291F1DC
:100230009E3209F048C086FC1EC0689486F806C04D
:100240009D3229F1903359F5689480F8F30123FD2C
:10025000959123FF91913F019111DFCF082D097FE7
:10026000903709F4C3C208F0B9C2983509F4C0C286
:100270009F3609F4C2C2F701868197812D96E2E18B
:100280000C94A309689481F8689482F8DFCF68948D
:1002900083F8DCCF689484F8D9CF87FC1CC080ED4C
:1002A000890F8A3028F686FE06C03AE0139F800D3B
:1002B0001124182FCBCF4AE0949E800D1124982E44
:1002C000689485F8C3CF9C3619F4689487F8BECF3C
:1002D000983609F4BBCF8BEB890F833008F041C00F
:1002E000689484F8905E86FE16E0582D5F73852E24
:1002F000953609F03EC0689486F887FE44C0812F89
:100300001C3308F08BE322242394280E27E0F50108
:1003100061917191819191916F01022DAE014F5FB9
:100320005F4F0E94BE095C01498040FE03C00DE2A0
:1003300043FE09C00BE281FC06C082FA002700F9E7
:100340000295000F007EF42DFC705F2EF115C1F1B7
:1003500001118DC224E0512C921608F49FC283E053
:100360008BC28BE9890F833008F041C1E89484F88F
:10037000BACF963619F4689487F8BFCF111509F4EF
:10038000BCCF1150BACF212F183010F027E017E062
:10039000212CBDCF81108052B70190E00E94AC0AA1
:1003A0000F5F1F4FF80184918111F4CF511409F4AC
:1003B0002FCFB70180E290E00E94AC0A5A94F6CFAA
:1003C00087FE32C0822D8A0D44FE04C09A8191338B
:1003D00009F4815022242394181634F4282EF9E0CD
:1003E0008F1710F088E0282E87FE46C0C501B7FEA3
:1003F00002C080E090E0019601110196111531F0E4
:10040000212F30E02F5F3F4F820F931F89159105F9
:1004100014F4592C581A882D8970811137C0511045
:100420002EC00115E1F134C086FCDECFE12FF0E0F3
:100430001A151B043CF02CEFA2162FEFB20614F095
:10044000689487F8329641E050E04C0F5D1FE40F4E
:10045000F51F01C01150111519F082918033D1F3AD
:1004600087FE0AC022242394210EA116B10414F49D
:100470001A19BACF10E0B8CF85E090E0BDCFB70130
:1004800080E290E00E94AC0A5A94C9CF011529F08D
:10049000B701802F90E00E94AC0A83FC02C051108B
:1004A0003EC087FE56C04501B7FE02C0812C912C8C
:1004B000C50188199909E1E0F0E0EC0FFD1FE80F94
:1004C000F91FFD87EC879501221931091901012FC8
:1004D00010E0119501951109A814B9043CF12814F4
:1004E000390424F5EC85FD858181F1E08F1A9108AE
:1004F0002C853D852F5F3F4F3D872C8780169106C9
:10050000BCF0B70190E00E94AC0A3FEF831693065F
:1005100019F7B7018EE290E00E94AC0ADDCFB70177
:1005200080E390E00E94AC0A5A94B9CF80E3DDCF1B
:10053000A814B90439F49A81963348F4953311F428
:1005400044FE05C0B70190E00E94AC0A2FCF81E3C2
:10055000F9CF8A81813311F0E89444F8B70190E033
:100560000E94AC0A111125C085E490E084FC02C011
:1005700085E690E0B7010E94AC0AB7FC05C0A11463
:10058000B10471F544FE2CC0B194A194B1088DE280
:10059000B70190E00E94AC0A80E35AE0A516B104CE
:1005A0000CF5B70190E00E94AC0AB701C501C096F6
:1005B000CBCFB7018EE290E00E94AC0A1E5F02E052
:1005C000802F0F5FE1E0F0E0EC0FFD1FE80FF11D61
:1005D0008081B70190E00E94AC0A0113F1CFC4CF33
:1005E0008BE2D6CF8F5F4AE0A41AB108D6CF9336FC
:1005F00009F482C0933709F495C0933509F4A1C07A
:10060000943619F0993609F0CEC0F50187FEC3C0C3
:1006100061917191819191916F01F82DFF768F2EEB
:1006200097FF09C090958095709561957F4F8F4F8A
:100630009F4F689487F82AE030E0AE014F5F5F4F2C
:100640005A010E94080BB82EBA185B2C082D86FEA2
:100650000AC00E7FB11638F484FE04C082FC02C0CA
:10066000082D0E7E512E04FFD8C0FE01EB0DF11DAA
:100670008081803309F0CAC0097E03FD0EC000FFEF
:10068000DBC01B2D591418F4190D1519592C892D7F
:100690008519951408F480E0580E591408F0CEC05E
:1006A0009518592C04FFCCC0B70180E390E00E945C
:1006B000AC0A02FF09C088E590E001FD02C088E7AE
:1006C00090E0B7010E94AC0AB11608F4C6C0BA9413
:1006D0000B2D10E00F5F1F4FCE0101965C01080F3C
:1006E000191FF80182918F01B70190E00E94AC0AB6
:1006F000A016B106B1F75ACE650182E0C80ED11C32
:10070000F5018081898301E010E09E012F5F3F4F5A
:100710005901E89487F883FC03C00915110510F10D
:10072000592C35C0F501A190B1906F01612F70E097
:1007300086FC02C06FEF7FEFC5010E94A10A8C0109
:10074000E8CFF501A190B1906F01612F70E086FCB8
:1007500002C06FEF7FEFC5010E94960A8C0168947A
:1007600087F8D9CFB70180E290E00E94AC0A9A9452
:10077000D4CFF50187FC859187FE81915F01B70198
:1007800090E00E94AC0A51105A94015011090115D1
:10079000110579F70BCE619171916F01072E000C55
:1007A000880B990B3ACF082D0F7E2AE030E0953761
:1007B00009F054CDF50107FF23C06191719181913A
:1007C00091916F01AE014F5F5F4F5A010E94080B7C
:1007D000B82EBA18802EE89487F837CF983709F0EA
:1007E0004ACD04FD046020E130E0E4CF0061F9CFA0
:1007F00084FC066020E132E0DDCF28E030E0DACF93
:10080000619171916F0180E090E0DCCF02FD02C048
:10081000539433CF5394539430CF802F86788115DF
:1008200009F42BCFF5CFB70180E290E00E94AC0A2B
:10083000A394A914C0F32BCFA52CFBCF512C32CFFE
:10084000802F8678811509F43FCF80E201FD8BE28D
:1008500007FD8DE2B70190E035CFB70180E390E06E
:100860000E94AC0A115030CF8FEF9FEF07CDF5E01B
:10087000512C9F1670F084E0592C581A83FC07C045
:10088000B70180E290E00E94AC0A5A94C9F70115C2
:1008900029F0B701802F90E00E94AC0A08E610E032
:1008A00043FC02C00CE610E0282D2071822E7ACD88
:1008B00080911702823069F038F4811579F0813027
:1008C00081F487E291E007C0833071F488E391E01E
:1008D00002C082E391E00E94DC0A089581E291E087
:1008E000FACF86E291E0F7CF86E291E0F4CF0E9462
:1008F0007A090E942F0962E084E00E94D80662E033
:1009000082E00E94D80660E086E00E94D80660E09F
:1009100085E00E94D80662E087E00E94D80680E663
:1009200080937C0085EE80937A0087E080937B0043
:1009300081E080937E0080EA8093800081E1809353
:10094000810080E280936F00109287008FEF809388
:10095000860084B1866084B97894109217020E9450
:10096000580486E00E94AA0690E0909319028093B2
:10097000180278C00E94430900914A0110914B016E
:1009800020914C0130914D01601B710B820B930B38
:10099000643F71408105910508F46AC00E944309D3
:1009A00060934A0170934B0180934C0190934D01E9
:1009B0008091170290E001968370907880931702DF
:1009C0000E94580455C00E94430900914A011091A9
:1009D0004B0120914C0130914D01601B710B820B3A
:1009E000930B643F71408105910508F447C00E9454
:1009F000430960934A0170934B0180934C0190939B
:100A00004D01809117028150809317028091170247
:100A10008370809317020E94580430C080911C029A
:100A200090911D02019690931D0280931C0280916B
:100A300017028F5F80931702809117028370809353
:100A400017020E94580466C080911A0290911B02FE
:100A5000909319028093180287E00E94AA068115DC
:100A600009F464C084E00E94AA06811509F482CFCB
:100A700082E00E94AA06811509F4A5CF86E00E94B3
:100A8000AA0690E090931B0280931A02209118020C
:100A90003091190282179307B9F20E94430900911D
:100AA0004A0110914B0120914C0130914D01601B86
:100AB000710B820B930B6C3271408105910520F212
:100AC0000E94430960934A0170934B0180934C014B
:100AD00090934D0185E00E94AA0620911A02309160
:100AE0001B028217130609F499CF80911C02909182
:100AF0001D02019790931D0280931C0280911702A2
:100B0000815080931702809117028370809317029F
:100B10000E94580480911C0290911D024E970CF483
:100B200093CF10921D0210921C028ECF0E94430997
:100B300000914A0110914B0120914C0130914D01DF
:100B4000601B710B820B930B643F71408105910513
:100B500008F488CF1092170210921D0210921C0206
:100B60000E9458040E94430960934A0170934B010C
:100B700080934C0190934D0175CF1F920F920FB649
:100B80000F9211242F933F934F935F938F939F93D3
:100B9000EF93FF9330917800432F50E0509323025E
:100BA0004093220290917900892F90E09093210246
:100BB0008093200220911702223009F454C0D0F40F
:100BC000211581F1213009F074C0982F8827832BDB
:100BD000952B905890931F0280931E022091020142
:100BE000309103012817390730F530931F02209305
:100BF0001E0221C0233009F05CC0982F8827832B68
:100C0000952B905890931F0280931E022091000113
:100C100002C0959587952A95E2F790931F028093DD
:100C20001E0209C0982F8827832B952B90589093EC
:100C30001F0280931E0280911E0290911F02905805
:100C40009093880080911E0280938A00FF91EF911B
:100C50009F918F915F914F913F912F910F900FBE78
:100C60000F901F90189520914E01E22FF0E0E15B6C
:100C7000FE4F30832F5F20934E01309101012317E7
:100C800010F010924E01E0914E01F0E0E15BFE4F5A
:100C9000208130E0322F2227242B352B982F8827D4
:100CA000842B952B820F931F90931F0280931E021B
:100CB000C2CF382F2227242B352BC901905890936F
:100CC0001F0280931E02B7CF282F883020F08E306D
:100CD00070F080E0089599B1892F90E002C0959559
:100CE00087952A95E2F721E08227817008952850A0
:100CF00093B1892F90E002C0959587952A95E2F7E8
:100D000021E08227817008950F931F93CF93DF9383
:100D1000C82FD0E08E010C5D1D4FF8018081880F37
:100D20008083FE01EE0FFF1FEA5DFD4F80810E9470
:100D30006406F8019081892B8083877C873031F0AD
:100D400080E0DF91CF911F910F9108958FEF808305
:100D500081E0F7CF883020F08E30B0F08FEF08952B
:100D600029B130E041E050E0082E02C0440F551F89
:100D70000A94E2F724233523A90102C0559547952B
:100D80008A95E2F7CA01089528EF280F83B190E011
:100D900041E050E0022E02C0440F551F0A94E2F7D2
:100DA0008423952302C0959587952A95E2F70895A7
:100DB0008830B8F561110FC04AB121E030E0F90187
:100DC00002C0EE0FFF1F8A95E2F7CF0180958423C2
:100DD0008AB9862F0895613021F0623079F081E080
:100DE00008959AB121E030E002C0220F331F8A95A6
:100DF000E2F7892F822B8AB980E008954AB121E079
:100E000030E0B90102C0660F771F8A95E2F7CB0187
:100E1000962F909594239AB99BB1892B8BB980E03A
:100E200008958E30C0F5885061110FC044B121E0A3
:100E300030E0F90102C0EE0FFF1F8A95E2F7CF0103
:100E40008095842384B9862F0895613021F0623023
:100E500079F081E0089594B121E030E002C0220FE2
:100E6000331F8A95E2F7892F822B84B980E0089599
:100E700044B121E030E0B90102C0660F771F8A95C6
:100E8000E2F7CB01962F9095942394B995B1892BD5
:100E900085B980E0089580E008951F920F920FB603
:100EA0000F9211242F933F938F93EF93FF93809191
:100EB000490221E030E002C0220F331F8A95E2F799
:100EC000E0914A02F0914B028081822B8083FF9156
:100ED000EF918F913F912F910F900FBE0F901F9028
:100EE00018951F920F920FB60F9211242F933F93D4
:100EF0004F935F938F939F93EF93FF938091420261
:100F000090E0FC01EE0FFF1FE80FF91FEE0FFF1F2F
:100F1000EE0FFF1FE65DFD4F8381813009F4A2C013
:100F20002091420230E0C901880F991FFC01E20FB5
:100F3000F31FEE0FFF1FEE0FFF1FE65DFD4F428513
:100F40005385FC01E20FF31FEE0FFF1FEE0FFF1F93
:100F5000E65DFD4F4150510953874287809142021F
:100F600090E0FC01EE0FFF1FE80FF91FEE0FFF1FCF
:100F7000EE0FFF1FE65DFD4F82859385892B09F0FB
:100F80005AC08091420290E0FC01EE0FFF1FE80F73
:100F9000F91FEE0FFF1FEE0FFF1FE65DFD4F81E013
:100FA00083838091420290E0FC01EE0FFF1FE80F67
:100FB000F91FEE0FFF1FEE0FFF1FE65DFD4F808153
:100FC00021E030E002C0220F331F8A95E2F78091C2
:100FD000420290E0FC01EE0FFF1FE80FF91FEE0F39
:100FE000FF1FEE0FFF1FE65DFD4F0180F281E02D38
:100FF0008081822B8083209142028091420290E086
:1010000030E0F901EE0FFF1FE20FF31FEE0FFF1F9D
:10101000EE0FFF1FE65DFD4F26813781FC01EE0FCD
:10102000FF1FE80FF91FEE0FFF1FEE0FFF1FE65D1A
:10103000FD4F33872287809142028F5F8093420267
:1010400080914202823009F49AC0FF91EF919F9102
:101050008F915F914F913F912F910F900FBE0F9005
:101060001F9018952091420230E0C901880F991F06
:10107000FC01E20FF31FEE0FFF1FEE0FFF1FE65DF7
:10108000FD4F40855185FC01E20FF31FEE0FFF1F5E
:10109000EE0FFF1FE65DFD4F41505109518740871C
:1010A0008091420290E0FC01EE0FFF1FE80FF91F54
:1010B000EE0FFF1FEE0FFF1FE65DFD4F8085918550
:1010C000892B09F0B8CF8091420290E0FC01EE0F2D
:1010D000FF1FE80FF91FEE0FFF1FEE0FFF1FE65D6A
:1010E000FD4F13828091420290E0FC01EE0FFF1F42
:1010F000E80FF91FEE0FFF1FEE0FFF1FE65DFD4F1C
:10110000208181E090E002C0880F991F2A95E2F7C4
:10111000809590952091420230E0F901EE0FFF1F7B
:10112000E20FF31FEE0FFF1FEE0FFF1FE65DFD4FF7
:101130000180F281E02D90818923808320914202F9
:101140008091420290E030E0F901EE0FFF1FE20FC4
:10115000F31FEE0FFF1FEE0FFF1FE65DFD4F248113
:101160003581FC01EE0FFF1FE80FF91FEE0FFF1F87
:10117000EE0FFF1FE65DFD4F318720875CCF109299
:10118000420263CF1F920F920FB60F9211248F93DA
:101190009F93809147029091480201969093480254
:1011A000809347029F918F910F900FBE0F901F90D9
:1011B00018951F920F920FB60F9211240F931F9341
:1011C0002F933F934F935F936F937F938F939F934F
:1011D000AF93BF93CF93EF93FF938091430290918E
:1011E0004402A0914502B09146020196A11DB11D95
:1011F0008093430290934402A0934502B093460229
:1012000080910401815080930401C0910401C115B3
:1012100001F1FF91EF91CF91BF91AF919F918F918C
:101220007F916F915F914F913F912F911F910F91FE
:101230000F900FBE0F901F9018950C2F10E08C2F61
:101240000E948406000F111FF801EA5DFD4F8183A3
:10125000CF5FC23090F381E080930401DACFE0EBFE
:10126000F0E0808181608083E1EBF0E080818B6041
:1012700080838FEF8093B300E0E7F0E080818260AD
:101280008083789408952FB7F89460914302709109
:10129000440280914502909146022FBF0895CF935A
:1012A000C82F8A3051F09091C00095FFFCCFC093B9
:1012B000C60080E090E0CF9108958DE00E944F0934
:1012C000F2CF8091C0008115E4F78091C60090E0D4
:1012D00008951092C50083E08093C400E0ECF0E034
:1012E00080818D7F808386E08093C20088E1809337
:1012F000C10008950E946909E4E4F1E083E191E00E
:101300009383828385E091E09183808308952F9277
:101310003F924F925F926F927F928F929F92AF9285
:10132000BF92CF92DF92EF92FF920F931F93CF93D2
:10133000DF93CDB7DEB7CA1BDB0B0FB6F894DEBF69
:101340000FBECDBF09942A88398848885F846E848F
:101350007D848C849B84AA84B984C884DF80EE80D9
:10136000FD800C811B81AA81B981CE0FD11D0FB6E2
:10137000F894DEBF0FBECDBFED010895283008F010
:1013800027E03327DA01990F311D87FD9160009620
:101390006105710539F432602E5F3D9330E32A9583
:1013A000E1F708959F3F30F080387105610509F03D
:1013B0003C5F3C5F3D93913008F08068911DDF9366
:1013C000CF931F930F93FF92EF92192F987F9695CB
:1013D000E92F96959695E90FFF27E653FF4F99273A
:1013E0003327EE24FF24A701E70105900894079412
:1013F00028F4360FE71EF81E491F511D660F771F90
:10140000881F991F0694A1F70590079428F4E70E0A
:10141000F81E491F561FC11D770F881F991F661F91
:101420000694A1F70590079428F4F80E491F561F5B
:10143000C71FD11D880F991F661F771F0694A1F73C
:101440000590079420F4490F561FC71FD81F990F06
:10145000661F771F881F0694A9F78491109517704F
:1014600041F0D695C79557954795F794E7941A9507
:10147000C1F7E0E7F0E0689415901591359165911A
:10148000959105907FE27395E118F10A430B560B95
:10149000C90BD009C0F7E10CF11E431F561FC91F2D
:1014A000D01D7EF4703311F48A95E6CFE894015094
:1014B00030F0080F0AF40027021708F4202F2395B4
:1014C000022F7A3328F079E37D932A95E9F710C04B
:1014D0007D932A9589F60694979567953795179584
:1014E0001794E118F10A430B560BC90BD00998F079
:1014F00023957E9173957A3308F070E37C932013E3
:10150000B8F77E9170617D9330F0839571E37D93A0
:1015100070E32A95E1F71124EF90FF900F911F914E
:10152000CF91DF91992787FD90950895FC01059053
:10153000615070400110D8F7809590958E0F9F1FD5
:101540000895FC016150704001900110D8F780951A
:1015500090958E0F9F1F08950F931F93CF93DF9346
:10156000182F092FEB018B8181FD09C01FEF0FEFB1
:10157000812F902FDF91CF911F910F91089582FFBE
:1015800014C02E813F818C819D81281739073CF43E
:10159000E881F981CF0101969983888310838E8138
:1015A0009F8101969F838E83E3CFE885F985812F04
:1015B0000995892BA1F3DACF0F931F93CF93DF9374
:1015C000E0914601F0914701238100E010E021FD08
:1015D0000EC00FEF1FEFC801DF91CF911F910F9148
:1015E00008950995892B11F00FEF1FEFCE01EC0143
:1015F00089916091460170914701DB011896ED9148
:10160000FC918111EECF8AE00995892B21F3E1CF7E
:10161000FA01AA27283051F1203181F1E8946F9323
:101620006E7F6E5F7F4F8F4F9F4FAF4FB1E03ED0C9
:10163000B4E03CD0670F781F891F9A1FA11D680F67
:10164000791F8A1F911DA11D6A0F711D811D911D9A
:10165000A11D20D009F468943F912AE0269F11240F
:101660003019305D3193DEF6CF010895462F477073
:10167000405D4193B3E00FD0C9F7F6CF462F4F70CE
:10168000405D4A3318F0495D31FD4052419302D02C
:10169000A9F7EACFB4E0A6959795879577956795D2
:1016A000BA95C9F700976105710508959B01AC01D2
:1016B0000A2E06945795479537952795BA95C9F7F9
:1016C000620F731F841F951FA01D0895F894FFCF0C
:1016D00002C8701701000000010000000000006156
:1016E00009000000000002000000004F0900000097
:1016F00000636C65616E00646973746F7274696F06
:101700006E0064656C617900626974206372757340
:041710006865720096
:00000001FF
