:100000000C94B5000C94DE000C94DE000C94DE0021
:100010000C94DE000C94DE000C94DE000C94E608D8
:100020000C94DE000C94DE000C94CA050C94DE00E7
:100030000C94DE000C94CF080C947E070C94DE0028
:100040000C945A070C94DE000C94DE000C94DE0035
:100050000C94DE000C94DE000C94DE000C94DE00A8
:100060000C94DE000C94DE006E616E00696E66001A
:1000700000407A10F35A00A0724E18090010A5D45F
:10008000E80000E87648170000E40B54020000CABC
:100090009A3B000000E1F505000080969800000002
:1000A00040420F000000A086010000001027000061
:1000B0000000E803000000006400000000000A00E7
:1000C000000000000100000000002C76D888DC67EA
:1000D0004F0823DFC1DFAE59E1B1B796E5E3E45342
:1000E000C63AE651997696E8E6C28426EB898C9B5F
:1000F00062ED407C6FFCEFBC9C9F40F2BAA56FA5FF
:10010000F490055A2AF75C936B6CF9676DC11BFC80
:10011000E0E40D47FEF520E6B500D0ED902E03009B
:10012000943577050080841E080000204E0A0000E8
:1001300000C80C333333330F986E12831141EF8DA7
:100140002114893BE65516CFFEE6DB18D1844B38E7
:100150001BF77C1D901DA4BBE424203284725E2218
:100160008100C9F124ECA1E53D2711241FBECFEF8A
:10017000D8E0DEBFCDBF14BE0FB6F894A89580912D
:100180006000886180936000109260000FBE13E0F1
:10019000A0E0B1E0EAECFAE202C005900D92A235CF
:1001A000B107D9F724E0A2E5B3E001C01D92AD3557
:1001B000B207E1F70E94A3040C940F150C94000001
:1001C000ADE0B0E0E6EEF0E00C9456107C013B01AF
:1001D0005A01FC0117821682838181FF45C3F70112
:1001E0002381F30123FD859123FF81913F01811537
:1001F00009F441C0853239F423FD959123FF919193
:100200003F01953239F4B70190E00E943F14650137
:100210005601E5CF10E0912C812CF0E28F1608F00A
:100220003CC09B3279F160F4903271F1933291F1DC
:100230009E3209F048C086FC1EC0689486F806C04D
:100240009D3229F1903359F5689480F8F30123FD2C
:10025000959123FF91913F019111DFCF082D097FE7
:10026000903709F4C3C208F0B9C2983509F4C0C286
:100270009F3609F4C2C2F701868197812D96E2E18B
:100280000C947210689481F8689482F8DFCF6894B7
:1002900083F8DCCF689484F8D9CF87FC1CC080ED4C
:1002A000890F8A3028F686FE06C03AE0139F800D3B
:1002B0001124182FCBCF4AE0949E800D1124982E44
:1002C000689485F8C3CF9C3619F4689487F8BECF3C
:1002D000983609F4BBCF8BEB890F833008F041C00F
:1002E000689484F8905E86FE16E0582D5F73852E24
:1002F000953609F03EC0689486F887FE44C0812F89
:100300001C3308F08BE322242394280E27E0F50108
:1003100061917191819191916F01022DAE014F5FB9
:100320005F4F0E9451135C01498040FE03C00DE203
:1003300043FE09C00BE281FC06C082FA002700F9E7
:100340000295000F007EF42DFC705F2EF115C1F1B7
:1003500001118DC224E0512C921608F49FC283E053
:100360008BC28BE9890F833008F041C1E89484F88F
:10037000BACF963619F4689487F8BFCF111509F4EF
:10038000BCCF1150BACF212F183010F027E017E062
:10039000212CBDCF81108052B70190E00E943F1404
:1003A0000F5F1F4FF80184918111F4CF511409F4AC
:1003B0002FCFB70180E290E00E943F145A94F6CF0D
:1003C00087FE32C0822D8A0D44FE04C09A8191338B
:1003D00009F4815022242394181634F4282EF9E0CD
:1003E0008F1710F088E0282E87FE46C0C501B7FEA3
:1003F00002C080E090E0019601110196111531F0E4
:10040000212F30E02F5F3F4F820F931F89159105F9
:1004100014F4592C581A882D8970811137C0511045
:100420002EC00115E1F134C086FCDECFE12FF0E0F3
:100430001A151B043CF02CEFA2162FEFB20614F095
:10044000689487F8329641E050E04C0F5D1FE40F4E
:10045000F51F01C01150111519F082918033D1F3AD
:1004600087FE0AC022242394210EA116B10414F49D
:100470001A19BACF10E0B8CF85E090E0BDCFB70130
:1004800080E290E00E943F145A94C9CF011529F0F0
:10049000B701802F90E00E943F1483FC02C05110EE
:1004A0003EC087FE56C04501B7FE02C0812C912C8C
:1004B000C50188199909E1E0F0E0EC0FFD1FE80F94
:1004C000F91FFD87EC879501221931091901012FC8
:1004D00010E0119501951109A814B9043CF12814F4
:1004E000390424F5EC85FD858181F1E08F1A9108AE
:1004F0002C853D852F5F3F4F3D872C8780169106C9
:10050000BCF0B70190E00E943F143FEF83169306C2
:1005100019F7B7018EE290E00E943F14DDCFB701DA
:1005200080E390E00E943F145A94B9CF80E3DDCF7E
:10053000A814B90439F49A81963348F4953311F428
:1005400044FE05C0B70190E00E943F142FCF81E325
:10055000F9CF8A81813311F0E89444F8B70190E033
:100560000E943F14111125C085E490E084FC02C074
:1005700085E690E0B7010E943F14B7FC05C0A114C6
:10058000B10471F544FE2CC0B194A194B1088DE280
:10059000B70190E00E943F1480E35AE0A516B10431
:1005A0000CF5B70190E00E943F14B701C501C09659
:1005B000CBCFB7018EE290E00E943F141E5F02E0B5
:1005C000802F0F5FE1E0F0E0EC0FFD1FE80FF11D61
:1005D0008081B70190E00E943F140113F1CFC4CF96
:1005E0008BE2D6CF8F5F4AE0A41AB108D6CF9336FC
:1005F00009F482C0933709F495C0933509F4A1C07A
:10060000943619F0993609F0CEC0F50187FEC3C0C3
:1006100061917191819191916F01F82DFF768F2EEB
:1006200097FF09C090958095709561957F4F8F4F8A
:100630009F4F689487F82AE030E0AE014F5F5F4F2C
:100640005A010E94B114B82EBA185B2C082D86FEF0
:100650000AC00E7FB11638F484FE04C082FC02C0CA
:10066000082D0E7E512E04FFD8C0FE01EB0DF11DAA
:100670008081803309F0CAC0097E03FD0EC000FFEF
:10068000DBC01B2D591418F4190D1519592C892D7F
:100690008519951408F480E0580E591408F0CEC05E
:1006A0009518592C04FFCCC0B70180E390E00E945C
:1006B0003F1402FF09C088E590E001FD02C088E711
:1006C00090E0B7010E943F14B11608F4C6C0BA9476
:1006D0000B2D10E00F5F1F4FCE0101965C01080F3C
:1006E000191FF80182918F01B70190E00E943F1419
:1006F000A016B106B1F75ACE650182E0C80ED11C32
:10070000F5018081898301E010E09E012F5F3F4F5A
:100710005901E89487F883FC03C00915110510F10D
:10072000592C35C0F501A190B1906F01612F70E097
:1007300086FC02C06FEF7FEFC5010E9434148C016C
:10074000E8CFF501A190B1906F01612F70E086FCB8
:1007500002C06FEF7FEFC5010E9429148C016894DD
:1007600087F8D9CFB70180E290E00E943F149A94B5
:10077000D4CFF50187FC859187FE81915F01B70198
:1007800090E00E943F1451105A9401501109011534
:10079000110579F70BCE619171916F01072E000C55
:1007A000880B990B3ACF082D0F7E2AE030E0953761
:1007B00009F054CDF50107FF23C06191719181913A
:1007C00091916F01AE014F5F5F4F5A010E94B114CA
:1007D000B82EBA18802EE89487F837CF983709F0EA
:1007E0004ACD04FD046020E130E0E4CF0061F9CFA0
:1007F00084FC066020E132E0DDCF28E030E0DACF93
:10080000619171916F0180E090E0DCCF02FD02C048
:10081000539433CF5394539430CF802F86788115DF
:1008200009F42BCFF5CFB70180E290E00E943F148E
:10083000A394A914C0F32BCFA52CFBCF512C32CFFE
:10084000802F8678811509F43FCF80E201FD8BE28D
:1008500007FD8DE2B70190E035CFB70180E390E06E
:100860000E943F14115030CF8FEF9FEF07CDF5E07E
:10087000512C9F1670F084E0592C581A83FC07C045
:10088000B70180E290E00E943F145A94C9F7011525
:1008900029F0B701802F90E00E943F1408E610E095
:1008A00043FC02C00CE610E0282D2071822E7ACD88
:1008B000CF93DF9380912904823069F038F4811559
:1008C000C9F18130D1F5CDE2D1E007C08330C1F567
:1008D000CEE3D1E002C0C8E3D1E00E94290A60E083
:1008E00080E00E94B90A80912A0490912B049F9382
:1008F0008F93DF93CF938AE491E09F938F930E942D
:10090000140C80912A0490912B049F938F93DF9372
:10091000CF9381E591E09F938F930E946F148DB7E1
:100920009EB70C960FB6F8949EBF0FBE8DBFDF9199
:10093000CF910895C7E2D1E0D0CFC0E5D1E0CDCFCF
:10094000C0E5D1E0CACF0E9487090E943C090E94FD
:10095000690A0E94290A62E084E00E94E50662E0DA
:1009600082E00E94E50647E065E086E00E94AD0F68
:10097000C82FD92F80E680937C0085EE80937A0083
:1009800087E080937B0081E080937E0080EA809303
:10099000800081E18093810080E280936F0010925B
:1009A00087008FEF8093860084B1866084B9789445
:1009B000109229040E945804EA81FB81CE01099516
:1009C00084E00E94B7068115A1F182E00E94B7067B
:1009D000811509F457C0EE85FF85CE010995892B55
:1009E00009F07BC0EC85FD85CE010995892B09F0C6
:1009F0008AC0EA89FB89CE010995892B09F099C043
:100A0000E889F989CE010995892B09F0A8C0EC8DF8
:100A1000FD8DCE010995892B09F0B7C0EE8DFF8DB4
:100A2000CE010995892B41F285E691E00E9485145B
:100A3000C3CF0E94500900915C0310915D03209187
:100A40005E0330915F03601B710B820B930B643F5D
:100A500071408105910508F4B8CF0E945009609358
:100A60005C0370935D0380935E0390935F038091BA
:100A7000290490E0019683709078809329040E9465
:100A80005804A3CF0E94500900915C0310915D03AC
:100A900020915E0330915F03601B710B820B930BFF
:100AA000643F71408105910508F495CF0E9450097B
:100AB00060935C0370935D0380935E0390935F0388
:100AC00080912904815080932904809129048370A6
:100AD000809329040E9458047ECF80912A0490912B
:100AE0002B04019790932B0480932A04809129046E
:100AF0008150809329048091290483708093290474
:100B00000E9458046FCF80912A0490912B04019683
:100B100090932B0480932A04809129048F5F809303
:100B20002904809129048370809329040E94580429
:100B300060CF80912A0490912B04059790932B0409
:100B400080932A0480912904815080932904809104
:100B500029048370809329040E94580451CF809106
:100B60002A0490912B04059690932B0480932A04D9
:100B7000809129048F5F80932904809129048370D8
:100B8000809329040E94580442CF8EE591E00E9490
:100B9000851444CF1F920F920FB60F9211242F93FA
:100BA0003F934F935F938F939F93EF93FF93309176
:100BB0007800432F50E050933104409330049091DB
:100BC0007900892F90E090932F0480932E04209138
:100BD0002904223009F454C0D0F4211581F12130C8
:100BE00009F074C0982F8827832B952B90589093E9
:100BF0002D0480932C0420910801309109012817BD
:100C0000390730F530932D0420932C0421C0233074
:100C100009F05CC0982F8827832B952B90589093D0
:100C20002D0480932C042091060102C09595879590
:100C30002A95E2F790932D0480932C0409C0982FF5
:100C40008827832B952B905890932D0480932C0408
:100C500080912C0490912D0490589093880080915D
:100C60002C0480938A00FF91EF919F918F915F9167
:100C70004F913F912F910F900FBE0F901F9018959D
:100C800020916003E22FF0E0EF59FC4F30832F5F9B
:100C90002093600330910701231710F01092600336
:100CA000E0916003F0E0EF59FC4F208130E0322FFB
:100CB0002227242B352B982F8827842B952B820FC6
:100CC000931F90932D0480932C04C2CF382F22279A
:100CD000242B352BC901905890932D0480932C041C
:100CE000B7CF282F883020F08E3070F080E0089544
:100CF00099B1892F90E002C0959587952A95E2F7E2
:100D000021E0822781700895285093B1892F90E0C7
:100D100002C0959587952A95E2F721E08227817098
:100D200008950F931F93CF93DF93C82FD0E08E01C8
:100D30000E5C1B4FF8018081880F8083FE01EE0F4F
:100D4000FF1FEC5CFB4F80810E947106F8019081CF
:100D5000892B8083877C873031F080E0DF91CF91D1
:100D60001F910F9108958FEF808381E0F7CF883036
:100D700020F08E30B0F08FEF089529B130E041E0DF
:100D800050E0082E02C0440F551F0A94E2F72423B6
:100D90003523A90102C0559547958A95E2F7CA0106
:100DA000089528EF280F83B190E041E050E0022E33
:100DB00002C0440F551F0A94E2F78423952302C012
:100DC000959587952A95E2F708958830B8F56111D1
:100DD0000FC04AB121E030E0F90102C0EE0FFF1F61
:100DE0008A95E2F7CF01809584238AB9862F0895EA
:100DF000613021F0623079F081E008959AB121E00C
:100E000030E002C0220F331F8A95E2F7892F822B30
:100E10008AB980E008954AB121E030E0B90102C00A
:100E2000660F771F8A95E2F7CB01962F9095942352
:100E30009AB99BB1892B8BB980E008958E30C0F5AB
:100E4000885061110FC044B121E030E0F90102C0C7
:100E5000EE0FFF1F8A95E2F7CF018095842384B9B6
:100E6000862F0895613021F0623079F081E0089595
:100E700094B121E030E002C0220F331F8A95E2F7DF
:100E8000892F822B84B980E0089544B121E030E0BD
:100E9000B90102C0660F771F8A95E2F7CB01962F42
:100EA0009095942394B995B1892B85B980E00895E4
:100EB00080E008951F920F920FB60F9211242F9386
:100EC0003F938F93EF93FF938091570421E030E09D
:100ED00002C0220F331F8A95E2F7E0915804F09187
:100EE00059048081822B8083FF91EF918F913F91F4
:100EF0002F910F900FBE0F901F9018951F920F9279
:100F00000FB60F9211242F933F934F935F938F93BC
:100F10009F93EF93FF938091500490E0FC01EE0FBC
:100F2000FF1FE80FF91FEE0FFF1FEE0FFF1FE85C1A
:100F3000FB4F8381813009F4A2C02091500430E03E
:100F4000C901880F991FFC01E20FF31FEE0FFF1F6D
:100F5000EE0FFF1FE85CFB4F42855385FC01E20F5B
:100F6000F31FEE0FFF1FEE0FFF1FE85CFB4F41501A
:100F70005109538742878091500490E0FC01EE0FA5
:100F8000FF1FE80FF91FEE0FFF1FEE0FFF1FE85CBA
:100F9000FB4F82859385892B09F05AC080915004BC
:100FA00090E0FC01EE0FFF1FE80FF91FEE0FFF1F8F
:100FB000EE0FFF1FE85CFB4F81E0838380915004BC
:100FC00090E0FC01EE0FFF1FE80FF91FEE0FFF1F6F
:100FD000EE0FFF1FE85CFB4F808121E030E002C094
:100FE000220F331F8A95E2F78091500490E0FC01B4
:100FF000EE0FFF1FE80FF91FEE0FFF1FEE0FFF1F91
:10100000E85CFB4F0180F281E02D8081822B8083A0
:10101000209150048091500490E030E0F901EE0FEF
:10102000FF1FE20FF31FEE0FFF1FEE0FFF1FE85C25
:10103000FB4F26813781FC01EE0FFF1FE80FF91FE0
:10104000EE0FFF1FEE0FFF1FE85CFB4F3387228779
:10105000809150048F5F80935004809150048230BF
:1010600009F49AC0FF91EF919F918F915F914F91F9
:101070003F912F910F900FBE0F901F9018952091C8
:10108000500430E0C901880F991FFC01E20FF31FE3
:10109000EE0FFF1FEE0FFF1FE85CFB4F40855185F1
:1010A000FC01E20FF31FEE0FFF1FEE0FFF1FE85CC6
:1010B000FB4F41505109518740878091500490E087
:1010C000FC01EE0FFF1FE80FF91FEE0FFF1FEE0FE1
:1010D000FF1FE85CFB4F80859185892B09F0B8CF15
:1010E0008091500490E0FC01EE0FFF1FE80FF91F04
:1010F000EE0FFF1FEE0FFF1FE85CFB4F1382809186
:10110000500490E0FC01EE0FFF1FE80FF91FEE0FF7
:10111000FF1FEE0FFF1FE85CFB4F208181E090E096
:1011200002C0880F991F2A95E2F78095909520912B
:10113000500430E0F901EE0FFF1FE20FF31FEE0F36
:10114000FF1FEE0FFF1FE85CFB4F0180F281E02DD7
:10115000908189238083209150048091500490E0F5
:1011600030E0F901EE0FFF1FE20FF31FEE0FFF1F3C
:10117000EE0FFF1FE85CFB4F24813581FC01EE0F71
:10118000FF1FE80FF91FEE0FFF1FEE0FFF1FE85CB8
:10119000FB4F318720875CCF1092500463CF1F92A2
:1011A0000F920FB60F9211248F939F938091550445
:1011B00090915604019690935604809355049F9104
:1011C0008F910F900FBE0F901F9018951F920F9246
:1011D0000FB60F9211240F931F932F933F934F93AA
:1011E0005F936F937F938F939F93AF93BF93CF93AF
:1011F000EF93FF938091510490915204A091530476
:10120000B09154040196A11DB11D80935104909397
:101210005204A0935304B093540480910A01815066
:1012200080930A01C0910A01C11501F1FF91EF916C
:10123000CF91BF91AF919F918F917F916F915F916E
:101240004F913F912F911F910F910F900FBE0F90D3
:101250001F9018950C2F10E08C2F0E949106000F04
:10126000111FF801EC5CFB4F8183CF5FC23090F31C
:1012700081E080930A01DACFE0EBF0E080818160C9
:101280008083E1EBF0E080818B6080838FEF80933F
:10129000B300E0E7F0E08081826080837894089575
:1012A0002FB7F894609151047091520480915304C7
:1012B000909154042FBF0895CF93C82F8A3051F0D6
:1012C0009091C00095FFFCCFC093C60080E090E0F5
:1012D000CF9108958DE00E945C09F2CF8091C0000B
:1012E0008115E4F78091C60090E008951092C50042
:1012F00083E08093C400E0ECF0E080818D7F808308
:1013000086E08093C20088E18093C10008950E9426
:101310007609E6E5F3E089E191E0938382838BE04F
:1013200091E0918380830895E9EBF0E080818C7FE8
:10133000808388E48093B800089580935A04ECEB8E
:10134000F0E08081846A80838091BC008115E4F79D
:101350008091B900887F883031F0803111F08EEFB4
:1013600008958FEF08958FEF0895880F90915A0494
:10137000892B8093BB0084E88093BC008091BC00E3
:101380008115E4F780915A0481110BC08091B90056
:10139000887F803299F0883399F0883199F48FEF03
:1013A0000895813011F080E008958091B900887F20
:1013B000803411F08EEF08958FEF08958EEF089529
:1013C0008EEF08958EEF08958093BB00ECEBF0E074
:1013D0008081806880838091BC008115E4F78091D2
:1013E000B900887F803331F0883331F0883231F4AE
:1013F0008FEF08958EEF08958EEF08958EEF089584
:10140000ECEBF0E08081806980838091BC0084FDFA
:10141000FCCF0895CF93C82F80E00E949D098C2FA8
:101420000E94B509CF9108950E94000A08950E9474
:10143000E4090895CF93C82F8CE30E940A0A80E044
:101440000E94170A8C2F0E94170A0E94140ACF913B
:101450000895CF93DF9381E20E941A0A80E00E94F0
:101460001A0A8FE70E941A0A82E20E941A0A80E092
:101470000E941A0A87E00E941A0A8CE30E940A0A54
:1014800080E40E94170AC0E0D0E004C080E00E941F
:10149000170A2196C11584E0D807C4F381E20E949F
:1014A0001A0A80E00E941A0A8FE70E941A0A82E252
:1014B0000E941A0A80E00E941A0A87E00E941A0A13
:1014C0008CE30E940A0A80E40E94170ADF91CF9100
:1014D00008950E9494098EEA0E941A0A85ED0E94DE
:1014E0001A0A80E80E941A0A88EA0E941A0A8FE300
:1014F0000E941A0A83ED0E941A0A80E00E941A0ACA
:1015000080E40E941A0A8DE80E941A0A84E10E946F
:101510001A0A80E20E941A0A80E00E941A0A81EAEE
:101520000E941A0A88EC0E941A0A8AED0E941A0A7E
:1015300082E10E941A0A81E80E941A0A8FEC0E9436
:101540001A0A89ED0E941A0A81EF0E941A0A8BED8D
:101550000E941A0A80E40E941A0A84EA0E941A0A67
:1015600086EA0E941A0A8FEA0E941A0A0E94290A31
:101570000895CF93DF93C82FD62F883010F46115CC
:101580001CF4DF91CF91089580935C0460935B0419
:1015900081E20E941A0A8D2F0E941A0A8FE70E9488
:1015A0001A0A82E20E941A0A8C2F0E941A0A87E005
:1015B0000E941A0A8CE30E940A0A80E40E94170A19
:1015C000E0CF80915C048F5F80935C048770809390
:1015D0005C0460E00E94B90A0895CF93DF93D82F8E
:1015E00080915B048B3750F5DA3029F1D052C0E09E
:1015F0002D2F30E0F901EE0FFF1FEE0FFF1FE20F5E
:10160000F31FE958FE4FEC0FF11D80810E94170A6D
:1016100090915B049F5F90935B04CF5FC53041F76F
:1016200080E00E94170A80915B048F5F80935B04C7
:10163000DF91CF9108950E94E10AFACF0E94E10A5A
:10164000DA30A1F6F5CFCF93DF93C82FD92F03C09F
:1016500021960E94ED0A88818111FACFDF91CF9106
:101660000895AF92BF92CF92DF92EF92FF920F93C5
:101670001F93CF93DF93CDB7DEB72A970FB6F894B9
:10168000DEBF0FBECDBFB82EC42ED52EE62EF72E50
:10169000022F22E0821759F0C114D104E104F104B1
:1016A00011F110E036C0805D0E94ED0A0150011575
:1016B00009F463C0202F2150330B41E050E002C0F9
:1016C000440F551F2A95E2F7052E000C660B770B89
:1016D0004C215D216E217F2181E0452B462B472B3C
:1016E00011F780E0E0CF10E0101708F046C01A3084
:1016F00008F043C080E30E94ED0A1F5FF5CF0B3076
:1017000058F5E1E0F0E0EC0FFD1FE10FF11D108254
:101710001F5F101708F5C114D104E104F10479F337
:10172000AC2C2B2D30E040E050E0C701B6010E9408
:101730002E10C22ED32EE42EF52EB29EA018112408
:10174000E1E0F0E0EC0FFD1FE10FF11DA082E0CF22
:10175000805D0E94ED0A1150111579F0812F8150A2
:10176000990BFC0121E030E02C0F3D1FE20FF31F2D
:1017700080818A3068F3895CECCF2A960FB6F894A2
:10178000DEBF0FBECDBFDF91CF911F910F91FF90B4
:10179000EF90DF90CF90BF90AF900895CF92DF92FF
:1017A000EF92FF920F931F93CF93DF93062F172F84
:1017B000D82FC92F0E94FA10C62ED72EE82EF92E48
:1017C0002FEF462F572F682F792F8AE00E94310B79
:1017D0008EE20E94ED0A6C2D7D2D8E2D9F2D0E9494
:1017E0002911262F372F482F592F602F712F8D2F1A
:1017F0009C2F0E948D1020E034E244E759E40E94BF
:10180000B7110E94FA10462F572F682F792F2FEF0C
:101810008AE00E94310BDF91CF911F910F91FF90D1
:10182000EF90DF90CF9008958F929F92AF92BF92EA
:10183000CF92DF92EF92FF920F931F93CF93DF939C
:1018400000D0CDB7DEB7FE01719601911191FA83F8
:10185000E983DBC0812F880F880F810F182F110FAC
:10186000190F1053FFEFEF1AFF0AF701908180ED77
:10187000890F8A3078F3DBC010E0F9CFE981FA8173
:10188000CF0102969A83898380810E94ED0ABAC0B3
:10189000E981FA81CF0102969A838983C080D18041
:1018A000DD204CF0A601DD0C660B770B212F8AE0C2
:1018B0000E94310BA7C0D194C194D1088DE20E943F
:1018C000ED0AF0CFE981FA81CF0104969A838983EA
:1018D00080809180A280B380BB203CF0212FB50195
:1018E000A4018AE00E94310B8DC0B094A094909422
:1018F0008094811C911CA11CB11C8DE20E94ED0AF8
:10190000EDCFE981FA81CF0102969A8389834081E4
:10191000518160E070E0212F8AE00E94310B72C09B
:10192000E981FA81CF0104969A83898340815181AC
:1019300062817381212F8AE00E94310B63C0E981AB
:10194000FA81CF0102969A8389834081518160E0B8
:1019500070E0212F80E10E94310B54C0E981FA81AF
:10196000CF0104969A83898340815181628173817A
:10197000212F80E10E94310B45C0E981FA81CF011E
:1019800002969A838983408151811F3F39F060E03C
:1019900070E0212F82E00E94310B34C010E1F7CFBC
:1019A000E981FA81CF0104969A838983408151812C
:1019B000628173811F3F29F0212F82E00E94310B49
:1019C00021C010E1F9CFE981FA81CF0104969A8311
:1019D000898360817181828193810E94CE0B12C0C4
:1019E000E981FA81CF0102969A838983808191816E
:1019F0000E94230B07C085E20E94ED0A03C00E94EB
:101A0000ED0A780187010F5F1F4FF8018081811572
:101A1000B9F08532A1F778018FEFE81AF80AF801DA
:101A2000918180ED890F8A3008F426CF1FEFEBED0E
:101A3000E90FE43538F7F0E0EF5EFA4E0C94501001
:101A40000F900F90DF91CF911F910F91FF90EF902A
:101A5000DF90CF90BF90AF909F908F900895DC0162
:101A6000ED91FC91848160FB80F984830895CF938C
:101A7000DF93C82FD92FEA81FB81CE010995E88138
:101A8000F981838180FD05C080E090E0DF91CF91F6
:101A900008958E7F838381E090E0F8CFE82FF92FBF
:101AA000A081B18113968C9113978E7F13968C939E
:101AB000A081B18113968C9113978D7F13968C938F
:101AC000A081B18113968C9113978B7F13968C9381
:101AD000A081B18113968C911397877F13968C9375
:101AE000A081B18113968C9113978F7E13968C935E
:101AF000A081B18113968C9113978F7D13968C934F
:101B0000A081B18113968C9113978F7B13968C9340
:101B1000A081B18113968C9113978F7713968C9334
:101B2000A081B18114968C9114978E7F14968C931A
:101B30000190F081E02D84818D7F84830895CF937F
:101B4000DF93C82FD92FEA81FB81CE010995E88167
:101B5000F9818581843029F080E090E0DF91CF9198
:101B60000895158281E090E0F9CFCF93DF93C82FDD
:101B7000D92FEA81FB81CE010995E881F981858120
:101B8000833029F080E090E0DF91CF9108951582B5
:101B900081E090E0F9CFCF93DF93C82FD92FEA816E
:101BA000FB81CE010995E881F981838183FD05C020
:101BB00080E090E0DF91CF910895877F838381E07B
:101BC00090E0F8CFCF93DF93C82FD92FEA81FB8124
:101BD000CE010995E881F981838184FD05C080E00B
:101BE00090E0DF91CF9108958F7E838381E090E034
:101BF000F8CFCF93DF93C82FD92FEA81FB81CE0195
:101C00000995E881F981838185FD05C080E090E038
:101C1000DF91CF9108958F7D838381E090E0F8CFAD
:101C2000CF93DF93C82FD92FEA81FB81CE0109958D
:101C3000E881F981838186FD05C080E090E0DF9135
:101C4000CF9108958F7B838381E090E0F8CFCF938D
:101C5000DF93C82FD92FEA81FB81CE010995E88156
:101C6000F981838181152CF080E090E0DF91CF91A4
:101C700008958F77838381E090E0F8CF1F93CF930F
:101C8000DF93C82FD92F672B89F010E0E881F98105
:101C9000612F80810E94E506E881F981612F8181B1
:101CA0000E94E506DF91CF911F91089512E0EECFDB
:101CB000E82FF92F672B41F060E00190F081E02DD3
:101CC00082810E94E506089562E0F7CFCF93DF930B
:101CD000C82FD92FEA81FB81CE010995E881F981CE
:101CE0008581823029F080E090E0DF91CF910895E6
:101CF0008CE691E00E948514E881F981158281E0EB
:101D000090E0F3CFCF93DF93C82FD92FEA81FB81E7
:101D1000CE010995E881F9818581813029F080E043
:101D200090E0DF91CF91089582E791E00E948514C1
:101D3000E881F981158281E090E0F3CF3F924F92E4
:101D40005F926F927F928F929F92AF92BF92CF924B
:101D5000DF92EF92FF920F931F93CF93DF93C82FE1
:101D6000D92F0E945009862E972EA82EB92EE881D1
:101D7000F98186819781A085B18524013501481AB2
:101D8000590A6A0A7B0A838188608383E881F98122
:101D900083818F7E8383E881F98183818F7D838333
:101DA000E881F98180810E94B706082FE881F981D6
:101DB00081810E94B706000F082BE881F981128506
:101DC000110F110F102B0E945009C62ED72EE82E8E
:101DD000F92EE881F98182810E94B706811135C010
:101DE00025EF421621E052066104710470F1E8818A
:101DF000F981838180618383E881F981868297827A
:101E0000A086B186E881F98183818E7F8383332424
:101E100033940E9450096C197D098E099F09693E0F
:101E200073408105910548F0E881F98182810E9423
:101E3000B7068111EECF3394ECCF0E94500981E0B8
:101E40003816A9F122E03216C1F11D3031F01430FC
:101E500021F0123011F01B3031F489EC4816510496
:101E60006104710480F51E3031F0173021F011301B
:101E700011F0183039F429EC421651046104710450
:101E800008F046C0E881F9810287DF91CF911F9168
:101E90000F91FF90EF90DF90CF90BF90AF909F9009
:101EA0008F907F906F905F904F903F900895E88162
:101EB000F981838180648383C5CFE881F98183813F
:101EC00080688383C2CFE881F981838181608383C5
:101ED000E881F981838182608383E881F981868248
:101EE0009782A086B186E881F98181E08583E881C7
:101EF000F98182810E94B7068111C4CFE881F981FE
:101F0000838180628383E881F98183E08583BACF0E
:101F1000E881F981838181608383E881F98183810C
:101F200084608383E881F98186829782A086B18666
:101F3000E881F98182E08583E881F98182810E94CC
:101F4000B70681119FCFE881F98183818062838305
:101F5000E881F98184E0858395CFDF92EF92FF924B
:101F60000F931F93CF93DF93D82EE62EF42E8BE0A2
:101F700090E00E942412082F192F82E290E00E9424
:101F80002412C82FD92FF801D082E182158216823F
:101F9000178210861186F28262E08F2D0E94E5067C
:101FA000198308838EE99EE09B838A838EE39EE0FB
:101FB0009D838C8388E59EE09F838E838FE29DE0E6
:101FC0009987888787E39DE09B878A8786E69EE0DE
:101FD0009D878C8782E89EE09F878E878FE99DE0B2
:101FE000998B888B85EB9DE09B8B8A8B8BEC9DE09E
:101FF0009F8B8E8B82EE9DE0998F888F89EF9DE07D
:102000009B8F8A8F80E19EE09D8F8C8F87E29EE080
:102010009F8F8E8F8EE49DE099A388A362E0F801E4
:1020200080810E94E50662E0F80181810E94E50658
:10203000F80180810E94B706F82EF80181810E9484
:10204000B706FF0CF82AF801F286CE01DF91CF9196
:102050001F910F91FF90EF90DF900895A1E21A2E4B
:10206000AA1BBB1BFD010DC0AA1FBB1FEE1FFF1F3C
:10207000A217B307E407F50720F0A21BB30BE40B8C
:10208000F50B661F771F881F991F1A9469F76095D3
:102090007095809590959B01AC01BD01CF0108958D
:1020A000EE0FFF1F0590F491E02D09942F923F92BF
:1020B0004F925F926F927F928F929F92AF92BF9258
:1020C000CF92DF92EF92FF920F931F93CF93DF9304
:1020D000CDB7DEB7CA1BDB0B0FB6F894DEBF0FBE61
:1020E000CDBF09942A88398848885F846E847D84AE
:1020F0008C849B84AA84B984C884DF80EE80FD80B0
:102100000C811B81AA81B981CE0FD11D0FB6F89425
:10211000DEBF0FBECDBFED0108955058BB27AA27E3
:102120000E94A5100C947D110E946F1138F00E943E
:10213000761120F039F49F3F19F426F40C946C11B9
:102140000EF4E095E7FB0C946611E92F0E948E11C6
:1021500058F3BA17620773078407950720F079F4DC
:10216000A6F50C94B0110EF4E0950B2EBA2FA02D0D
:102170000B01B90190010C01CA01A0011124FF2734
:10218000591B99F0593F50F4503E68F11A16F0402F
:10219000A22F232F342F4427585FF3CF469537952E
:1021A0002795A795F0405395C9F77EF41F16BA0BF3
:1021B000620B730B840BBAF09150A1F0FF0FBB1FA1
:1021C000661F771F881FC2F70EC0BA0F621F731FEA
:1021D000841F48F4879577956795B795F7959E3F47
:1021E00008F0B0CF9395880F08F09927EE0F9795D8
:1021F000879508950E94961188F09F5798F0B92FFF
:102200009927B751B0F0E1F0660F771F881F991F2B
:102210001AF0BA95C9F714C0B13091F00E94B0110C
:10222000B1E008950C94B011672F782F8827B85F1C
:1022300039F0B93FCCF3869577956795B395D9F783
:102240003EF490958095709561957F4F8F4F9F4F8D
:102250000895E89409C097FB3EF490958095709599
:1022600061957F4F8F4F9F4F9923A9F0F92F96E9E2
:10227000BB279395F695879577956795B795F11157
:10228000F8CFFAF4BB0F11F460FF1BC06F5F7F4FF4
:102290008F4F9F4F16C0882311F096E911C0772306
:1022A00021F09EE8872F762F05C0662371F096E80F
:1022B000862F70E060E02AF09A95660F771F881FDE
:1022C000DAF7880F9695879597F9089597F99F679C
:1022D00080E870E060E008959FEF80EC08950024AE
:1022E0000A941616170618060906089500240A947B
:1022F00012161306140605060895092E0394000C01
:1023000011F4882352F0BB0F40F4BF2B11F460FF8F
:1023100004C06F5F7F4F8F4F9F4F089557FD9058B8
:10232000440F551F59F05F3F71F04795880F97FB99
:10233000991F61F09F3F79F0879508951216130653
:102340001406551FF2CF4695F1DF08C01616170682
:102350001806991FF1CF86957105610508940895B7
:10236000E894BB2766277727CB0197F908950E9449
:10237000CA110C947D110E946F1138F00E947611E1
:1023800020F0952311F00C9466110C946C1111241B
:102390000C94B1110E948E1170F3959FC1F3950FAB
:1023A00050E0551F629FF001729FBB27F00DB11DD9
:1023B000639FAA27F00DB11DAA1F649F6627B00D69
:1023C000A11D661F829F2227B00DA11D621F739F52
:1023D000B00DA11D621F839FA00D611D221F749F60
:1023E0003327A00D611D231F849F600D211D822FA7
:1023F000762F6A2F11249F5750409AF0F1F08823CE
:102400004AF0EE0FFF1FBB1F661F771F881F9150FA
:102410005040A9F79E3F510580F00C9466110C9432
:10242000B1115F3FE4F3983ED4F3869577956795B5
:10243000B795F795E7959F5FC1F7FE2B880F911D24
:102440009695879597F908950F931F93CF93DF93F0
:102450009C01029710F422E030E0E0915203F091E9
:10246000530380E090E0A0E0B0E0309791F4009753
:1024700009F448C0821B930B84309105D0F58A8102
:102480009B816115710581F1FB0193838283FE01BC
:1024900011C0408151810281138142175307D8F046
:1024A0004217530799F4109761F012960C93129704
:1024B00013961C933296CF01DF91CF911F910F910C
:1024C00008950093520310935303F4CF009751F0F3
:1024D0004817590738F0AC01DB01CA01BD01DF0123
:1024E000F801C3CFEF01F9CF9093530380935203C8
:1024F000CECFFE01E80FF91F219331930297998304
:102500008883D9CF8091540390915503892B41F44E
:10251000809102019091030190935503809354039D
:102520008091000190910101009741F48DB79EB711
:102530004091040150910501841B950B4091540377
:10254000509155034817590708F0B5CF841B950BD8
:102550008217930708F4AFCFB9016E5F7F4F8617DC
:10256000970708F4A8CF640F751F70935503609305
:102570005403FA01219331939ECFCF93DF939C01B3
:102580000097D9F0FC01329713821282C091520356
:10259000D0915303209709F058C080819181280F72
:1025A000391F80915403909155038217930709F0C6
:1025B0006DC0F0935503E0935403DF91CF910895DC
:1025C000AE17BF0708F048C0CD0112960D90BC9120
:1025D000A02D1097A9F7DC011396FC93EE931297A8
:1025E0004D915D919D01240F351FE217F30781F492
:1025F000208131812E5F3F4F240F351FDC01119662
:102600003C932E932281338113963C932E93129701
:10261000E0E0F0E08A819B810097E9F5DE018D9191
:102620009D918A0F9B1F20915403309155032817C9
:10263000390719F6309791F510925303109252030F
:10264000D0935503C0935403B8CFDE0180E090E0EF
:10265000CE17DF0708F4B8CFB383A283408151813E
:10266000240F351FA217B30771F44E5F5F4F2D91F2
:102670003C911197240F351F3183208312962D91A1
:102680003C9133832283009709F0A5CFF093530345
:10269000E093520392CFFE01EC01BCCF1382128271
:1026A000CFCF283008F027E03327DA01990F311D0A
:1026B00087FD916000966105710539F432602E5FE7
:1026C0003D9330E32A95E1F708959F3F30F080383D
:1026D0007105610509F03C5F3C5F3D93913008F066
:1026E0008068911DDF93CF931F930F93FF92EF921A
:1026F000192F987F9695E92F96959695E90FFF27C4
:10270000E653FF4F99273327EE24FF24A701E70163
:1027100005900894079428F4360FE71EF81E491F09
:10272000511D660F771F881F991F0694A1F705900A
:10273000079428F4E70EF81E491F561FC11D770F96
:10274000881F991F661F0694A1F70590079428F427
:10275000F80E491F561FC71FD11D880F991F661FEE
:10276000771F0694A1F70590079420F4490F561F90
:10277000C71FD81F990F661F771F881F0694A9F7D8
:1027800084911095177041F0D695C7955795479548
:10279000F794E7941A95C1F7E0E7F0E06894159094
:1027A000159135916591959105907FE27395E118AA
:1027B000F10A430B560BC90BD009C0F7E10CF11E0F
:1027C000431F561FC91FD01D7EF4703311F48A9524
:1027D000E6CFE894015030F0080F0AF40027021702
:1027E00008F4202F2395022F7A3328F079E37D9384
:1027F0002A95E9F710C07D932A9589F60694979556
:102800006795379517951794E118F10A430B560B06
:10281000C90BD00998F023957E9173957A3308F00F
:1028200070E37C932013B8F77E9170617D9330F054
:10283000839571E37D9370E32A95E1F71124EF907E
:10284000FF900F911F91CF91DF91992787FD909570
:102850000895FC010590615070400110D8F78095F3
:1028600090958E0F9F1F0895FC016150704001905C
:102870000110D8F7809590958E0F9F1F08950F93A4
:102880001F93CF93DF93182F092FEB018B8181FDCD
:1028900009C01FEF0FEF812F902FDF91CF911F9174
:1028A0000F91089582FF14C02E813F818C819D81FC
:1028B000281739073CF4E881F981CF010196998303
:1028C000888310838E819F8101969F838E83E3CFBF
:1028D000E885F985812F0995892BA1F3DACFA0E04E
:1028E000B0E0E5E7F4E10C946610AE014B5F5F4F9A
:1028F000FA0161917191AF01809158039091590350
:102900000E94E000E2E00C9482100F931F93CF939B
:10291000DF93E0915803F0915903238100E010E028
:1029200021FD0EC00FEF1FEFC801DF91CF911F9166
:102930000F9108950995892B11F00FEF1FEFCE012C
:10294000EC0189916091580370915903DB0118964D
:10295000ED91FC918111EECF8AE00995892B21F34D
:10296000E1CFFA01AA27283051F1203181F1E89412
:102970006F936E7F6E5F7F4F8F4F9F4FAF4FB1E072
:102980003ED0B4E03CD0670F781F891F9A1FA11D6D
:10299000680F791F8A1F911DA11D6A0F711D811D6E
:1029A000911DA11D20D009F468943F912AE0269F33
:1029B00011243019305D3193DEF6CF010895462F92
:1029C0004770405D4193B3E00FD0C9F7F6CF462F73
:1029D0004F70405D4A3318F0495D31FD40524193DC
:1029E00002D0A9F7EACFB4E0A69597958795779599
:1029F0006795BA95C9F700976105710508959B0120
:102A0000AC010A2E06945795479537952795BA95A8
:102A1000C9F7620F731F841F951FA01D0895F894B6
:102A2000FFCFFB0C020D020D020D020D020D020D77
:102A3000020D020D020D020D020D020D020D020D1E
:102A4000020D020D020D020D020D020D020D020D0E
:102A5000020D020D020D020D020D020DD00C3E0CF6
:102A6000620C020DE30C020D020D020D020D020DAF
:102A7000020D020D020D020D020D020D020DF00CF1
:102A8000020D900C020D020DAE0C020D020D020D96
:102A9000020D020D020D020D020D020DBD0C3E0CC9
:102AA000480C020DE30C020D020D020D020D020D89
:102AB000020D020D020D020D020D020D020DF00CB1
:0A2AC000020D810C020D020D9F0CA7
:102ACA0000005D04200002C8701701000000010028
:102ADA0000000000006E0900000000000200000073
:102AEA00005C0900000000636C65616E0064697334
:102AFA00746F7274696F6E0064656C6179006269E3
:102B0A007420637275736865720025730A25640AF6
:102B1A0000653A2025730A633A2025640A0073691E
:102B2A006E676C6500646F75626C650072696768D0
:102B3A0074006C65667400000000000000002F003D
:102B4A00000007000700147F147F14242A7F2A122A
:102B5A002313086462364955225000050300000019
:102B6A001C2241000041221C0014083E08140808D7
:102B7A003E08080000A06000080808080800606015
:102B8A00000020100804023E5149453E00427F40A1
:102B9A000042615149462141454B311814127F10B8
:102BAA0027454545393C4A494930017109050336EB
:102BBA0049494936064949291E0036360000005659
:102BCA00360000081422410014141414140041227F
:102BDA0014080201510906324959513E7C12111258
:102BEA007C7F494949363E414141227F4141221C6D
:102BFA007F494949417F090909013E4149497A7F8B
:102C0A000808087F00417F41002040413F017F08BA
:102C1A001422417F404040407F020C027F7F04081B
:102C2A00107F3E4141413E7F090909063E4151213B
:102C3A005E7F09192946464949493101017F010147
:102C4A003F4040403F1F2040201F3F4038403F63E5
:102C5A001408146307087008076151494543007F47
:102C6A0041410055AA55AA550041417F000402017D
:102C7A0002044040404040000305000020545454E0
:102C8A00787F484444383844444420384444487F90
:102C9A003854545418087E09010218A4A4A47C7F4D
:102CAA000804047800447D40004080847D007F1041
:102CBA0028440000417F40007C041804787C080402
:102CCA0004783844444438FC24242418182424184A
:102CDA00FC7C080404084854545420043F4440200F
:102CEA003C4040207C1C2040201C3C4030403C445E
:102CFA00281028441CA0A0A07C4464544C44001012
:102D0A007C82000000FF000000827C10000006099F
:022D1A000906A8
:00000001FF
