:100000000C94B5000C94DE000C94DE000C94DE0021
:100010000C94DE000C94DE000C94DE000C94CE08F0
:100020000C94DE000C94DE000C94B2050C94DE00FF
:100030000C94DE000C94B7080C9466070C94DE0058
:100040000C9442070C94DE000C94DE000C94DE004D
:100050000C94DE000C94DE000C94DE000C94DE00A8
:100060000C94DE000C94DE006E616E00696E66001A
:1000700000407A10F35A00A0724E18090010A5D45F
:10008000E80000E87648170000E40B54020000CABC
:100090009A3B000000E1F505000080969800000002
:1000A00040420F000000A086010000001027000061
:1000B0000000E803000000006400000000000A00E7
:1000C000000000000100000000002C76D888DC67EA
:1000D0004F0823DFC1DFAE59E1B1B796E5E3E45342
:1000E000C63AE651997696E8E6C28426EB898C9B5F
:1000F00062ED407C6FFCEFBC9C9F40F2BAA56FA5FF
:10010000F490055A2AF75C936B6CF9676DC11BFC80
:10011000E0E40D47FEF520E6B500D0ED902E03009B
:10012000943577050080841E080000204E0A0000E8
:1001300000C80C333333330F986E12831141EF8DA7
:100140002114893BE65516CFFEE6DB18D1844B38E7
:100150001BF77C1D901DA4BBE424203284725E2218
:100160008100C9F124ECA1E53D2711241FBECFEF8A
:10017000D8E0DEBFCDBF14BE0FB6F894A89580912D
:100180006000886180936000109260000FBE13E0F1
:10019000A0E0B1E0E8E3FAE202C005900D92A434D9
:1001A000B107D9F724E0A4E4B3E001C01D92AF3455
:1001B000B207E1F70E94A3040C94C6140C9400004B
:1001C000ADE0B0E0E6EEF0E00C940D107C013B01F8
:1001D0005A01FC0117821682838181FF45C3F70112
:1001E0002381F30123FD859123FF81913F01811537
:1001F00009F441C0853239F423FD959123FF919193
:100200003F01953239F4B70190E00E94F613650181
:100210005601E5CF10E0912C812CF0E28F1608F00A
:100220003CC09B3279F160F4903271F1933291F1DC
:100230009E3209F048C086FC1EC0689486F806C04D
:100240009D3229F1903359F5689480F8F30123FD2C
:10025000959123FF91913F019111DFCF082D097FE7
:10026000903709F4C3C208F0B9C2983509F4C0C286
:100270009F3609F4C2C2F701868197812D96E2E18B
:100280000C942910689481F8689482F8DFCF689400
:1002900083F8DCCF689484F8D9CF87FC1CC080ED4C
:1002A000890F8A3028F686FE06C03AE0139F800D3B
:1002B0001124182FCBCF4AE0949E800D1124982E44
:1002C000689485F8C3CF9C3619F4689487F8BECF3C
:1002D000983609F4BBCF8BEB890F833008F041C00F
:1002E000689484F8905E86FE16E0582D5F73852E24
:1002F000953609F03EC0689486F887FE44C0812F89
:100300001C3308F08BE322242394280E27E0F50108
:1003100061917191819191916F01022DAE014F5FB9
:100320005F4F0E9408135C01498040FE03C00DE24C
:1003300043FE09C00BE281FC06C082FA002700F9E7
:100340000295000F007EF42DFC705F2EF115C1F1B7
:1003500001118DC224E0512C921608F49FC283E053
:100360008BC28BE9890F833008F041C1E89484F88F
:10037000BACF963619F4689487F8BFCF111509F4EF
:10038000BCCF1150BACF212F183010F027E017E062
:10039000212CBDCF81108052B70190E00E94F6134E
:1003A0000F5F1F4FF80184918111F4CF511409F4AC
:1003B0002FCFB70180E290E00E94F6135A94F6CF57
:1003C00087FE32C0822D8A0D44FE04C09A8191338B
:1003D00009F4815022242394181634F4282EF9E0CD
:1003E0008F1710F088E0282E87FE46C0C501B7FEA3
:1003F00002C080E090E0019601110196111531F0E4
:10040000212F30E02F5F3F4F820F931F89159105F9
:1004100014F4592C581A882D8970811137C0511045
:100420002EC00115E1F134C086FCDECFE12FF0E0F3
:100430001A151B043CF02CEFA2162FEFB20614F095
:10044000689487F8329641E050E04C0F5D1FE40F4E
:10045000F51F01C01150111519F082918033D1F3AD
:1004600087FE0AC022242394210EA116B10414F49D
:100470001A19BACF10E0B8CF85E090E0BDCFB70130
:1004800080E290E00E94F6135A94C9CF011529F03A
:10049000B701802F90E00E94F61383FC02C0511038
:1004A0003EC087FE56C04501B7FE02C0812C912C8C
:1004B000C50188199909E1E0F0E0EC0FFD1FE80F94
:1004C000F91FFD87EC879501221931091901012FC8
:1004D00010E0119501951109A814B9043CF12814F4
:1004E000390424F5EC85FD858181F1E08F1A9108AE
:1004F0002C853D852F5F3F4F3D872C8780169106C9
:10050000BCF0B70190E00E94F6133FEF831693060C
:1005100019F7B7018EE290E00E94F613DDCFB70124
:1005200080E390E00E94F6135A94B9CF80E3DDCFC8
:10053000A814B90439F49A81963348F4953311F428
:1005400044FE05C0B70190E00E94F6132FCF81E36F
:10055000F9CF8A81813311F0E89444F8B70190E033
:100560000E94F613111125C085E490E084FC02C0BE
:1005700085E690E0B7010E94F613B7FC05C0A11410
:10058000B10471F544FE2CC0B194A194B1088DE280
:10059000B70190E00E94F61380E35AE0A516B1047B
:1005A0000CF5B70190E00E94F613B701C501C096A3
:1005B000CBCFB7018EE290E00E94F6131E5F02E0FF
:1005C000802F0F5FE1E0F0E0EC0FFD1FE80FF11D61
:1005D0008081B70190E00E94F6130113F1CFC4CFE0
:1005E0008BE2D6CF8F5F4AE0A41AB108D6CF9336FC
:1005F00009F482C0933709F495C0933509F4A1C07A
:10060000943619F0993609F0CEC0F50187FEC3C0C3
:1006100061917191819191916F01F82DFF768F2EEB
:1006200097FF09C090958095709561957F4F8F4F8A
:100630009F4F689487F82AE030E0AE014F5F5F4F2C
:100640005A010E946814B82EBA185B2C082D86FE39
:100650000AC00E7FB11638F484FE04C082FC02C0CA
:10066000082D0E7E512E04FFD8C0FE01EB0DF11DAA
:100670008081803309F0CAC0097E03FD0EC000FFEF
:10068000DBC01B2D591418F4190D1519592C892D7F
:100690008519951408F480E0580E591408F0CEC05E
:1006A0009518592C04FFCCC0B70180E390E00E945C
:1006B000F61302FF09C088E590E001FD02C088E75B
:1006C00090E0B7010E94F613B11608F4C6C0BA94C0
:1006D0000B2D10E00F5F1F4FCE0101965C01080F3C
:1006E000191FF80182918F01B70190E00E94F61363
:1006F000A016B106B1F75ACE650182E0C80ED11C32
:10070000F5018081898301E010E09E012F5F3F4F5A
:100710005901E89487F883FC03C00915110510F10D
:10072000592C35C0F501A190B1906F01612F70E097
:1007300086FC02C06FEF7FEFC5010E94EB138C01B6
:10074000E8CFF501A190B1906F01612F70E086FCB8
:1007500002C06FEF7FEFC5010E94E0138C01689427
:1007600087F8D9CFB70180E290E00E94F6139A94FF
:10077000D4CFF50187FC859187FE81915F01B70198
:1007800090E00E94F61351105A940150110901157E
:10079000110579F70BCE619171916F01072E000C55
:1007A000880B990B3ACF082D0F7E2AE030E0953761
:1007B00009F054CDF50107FF23C06191719181913A
:1007C00091916F01AE014F5F5F4F5A010E94681413
:1007D000B82EBA18802EE89487F837CF983709F0EA
:1007E0004ACD04FD046020E130E0E4CF0061F9CFA0
:1007F00084FC066020E132E0DDCF28E030E0DACF93
:10080000619171916F0180E090E0DCCF02FD02C048
:10081000539433CF5394539430CF802F86788115DF
:1008200009F42BCFF5CFB70180E290E00E94F613D8
:10083000A394A914C0F32BCFA52CFBCF512C32CFFE
:10084000802F8678811509F43FCF80E201FD8BE28D
:1008500007FD8DE2B70190E035CFB70180E390E06E
:100860000E94F613115030CF8FEF9FEF07CDF5E0C8
:10087000512C9F1670F084E0592C581A83FC07C045
:10088000B70180E290E00E94F6135A94C9F701156F
:1008900029F0B701802F90E00E94F61308E610E0DF
:1008A00043FC02C00CE610E0282D2071822E7ACD88
:1008B000CF93DF9380911B04823069F038F4811567
:1008C000C9F18130D1F5CDE2D1E007C08330C1F567
:1008D000CEE3D1E002C0C8E3D1E00E94110A60E09B
:1008E00080E00E94A10A80911C0490911D049F93B6
:1008F0008F93DF93CF938AE491E09F938F930E942D
:10090000FC0B80911C0490911D049F938F93DF93A7
:10091000CF9381E591E09F938F930E9426148DB72A
:100920009EB70C960FB6F8949EBF0FBE8DBFDF9199
:10093000CF910895C7E2D1E0D0CFC0E5D1E0CDCFCF
:10094000C0E5D1E0CACF0E946F090E9424090E942D
:10095000510A0E94110A62E084E00E94CD0662E022
:1009600082E00E94CD0647E065E086E00E94600FCD
:10097000C82FD92F80E680937C0085EE80937A0083
:1009800087E080937B0081E080937E0080EA809303
:10099000800081E18093810080E280936F0010925B
:1009A00087008FEF8093860084B1866084B9789445
:1009B00010921B040E945804EA81FB81CE01099524
:1009C00084E00E949F068115B9F182E00E949F0693
:1009D000811509F45AC0EE85FF85CE010995892B52
:1009E00009F07EC0EC85FD85CE010995892B09F0C3
:1009F0008DC0EA89FB89CE010995892B09F09CC03D
:100A0000E889F989CE010995892BB1F280911C04FE
:100A100090911D04059690931D0480931C04809171
:100A20001B048F5F80931B0480911B048370809351
:100A30001B040E945804C0CF0E94380900914E0345
:100A400010914F032091500330915103601B710BA3
:100A5000820B930B643F71408105910508F4B5CF7B
:100A60000E94380960934E0370934F0380935003A4
:100A70009093510380911B0490E0019683709078CD
:100A800080931B040E945804A0CF0E943809009153
:100A90004E0310914F032091500330915103601B7E
:100AA000710B820B930B643F71408105910508F433
:100AB00092CF0E94380960934E0370934F03809346
:100AC00050039093510380911B04815080931B0429
:100AD00080911B04837080931B040E9458047BCF79
:100AE00080911C0490911D04019790931D048093A4
:100AF0001C0480911B04815080931B0480911B0473
:100B0000837080931B040E9458046CCF80911C0456
:100B100090911D04019690931D0480931C04809174
:100B20001B048F5F80931B0480911B048370809350
:100B30001B040E9458045DCF80911C0490911D04F9
:100B4000059790931D0480931C0480911B04815091
:100B500080931B0480911B04837080931B040E946C
:100B600058044ECF1F920F920FB60F9211242F935D
:100B70003F934F935F938F939F93EF93FF933091A6
:100B80007800432F50E05093230440932204909127
:100B90007900892F90E09093210480932004209184
:100BA0001B04223009F454C0D0F4211581F1213006
:100BB00009F074C0982F8827832B952B9058909319
:100BC0001F0480931E042091080130910901281709
:100BD000390730F530931F0420931E0421C02330C1
:100BE00009F05CC0982F8827832B952B9058909301
:100BF0001F0480931E042091060102C095958795DD
:100C00002A95E2F790931F0480931E0409C0982F41
:100C10008827832B952B905890931F0480931E0454
:100C200080911E0490911F049058909388008091A9
:100C30001E0480938A00FF91EF919F918F915F91A5
:100C40004F913F912F910F900FBE0F901F901895CD
:100C500020915203E22FF0E0ED5AFC4F30832F5FDA
:100C60002093520330910701231710F01092520382
:100C7000E0915203F0E0ED5AFC4F208130E0322F3A
:100C80002227242B352B982F8827842B952B820FF6
:100C9000931F90931F0480931E04C2CF382F2227E6
:100CA000242B352BC901905890931F0480931E0468
:100CB000B7CF282F883020F08E3070F080E0089574
:100CC00099B1892F90E002C0959587952A95E2F712
:100CD00021E0822781700895285093B1892F90E0F8
:100CE00002C0959587952A95E2F721E082278170C9
:100CF00008950F931F93CF93DF93C82FD0E08E01F9
:100D00000C5D1B4FF8018081880F8083FE01EE0F80
:100D1000FF1FEA5DFB4F80810E945906F801908118
:100D2000892B8083877C873031F080E0DF91CF9101
:100D30001F910F9108958FEF808381E0F7CF883066
:100D400020F08E30B0F08FEF089529B130E041E00F
:100D500050E0082E02C0440F551F0A94E2F72423E6
:100D60003523A90102C0559547958A95E2F7CA0136
:100D7000089528EF280F83B190E041E050E0022E63
:100D800002C0440F551F0A94E2F78423952302C042
:100D9000959587952A95E2F708958830B8F5611101
:100DA0000FC04AB121E030E0F90102C0EE0FFF1F91
:100DB0008A95E2F7CF01809584238AB9862F08951A
:100DC000613021F0623079F081E008959AB121E03C
:100DD00030E002C0220F331F8A95E2F7892F822B61
:100DE0008AB980E008954AB121E030E0B90102C03B
:100DF000660F771F8A95E2F7CB01962F9095942383
:100E00009AB99BB1892B8BB980E008958E30C0F5DB
:100E1000885061110FC044B121E030E0F90102C0F7
:100E2000EE0FFF1F8A95E2F7CF018095842384B9E6
:100E3000862F0895613021F0623079F081E00895C5
:100E400094B121E030E002C0220F331F8A95E2F70F
:100E5000892F822B84B980E0089544B121E030E0ED
:100E6000B90102C0660F771F8A95E2F7CB01962F72
:100E70009095942394B995B1892B85B980E0089514
:100E800080E008951F920F920FB60F9211242F93B6
:100E90003F938F93EF93FF938091490421E030E0DB
:100EA00002C0220F331F8A95E2F7E0914A04F091C5
:100EB0004B048081822B8083FF91EF918F913F9132
:100EC0002F910F900FBE0F901F9018951F920F92A9
:100ED0000FB60F9211242F933F934F935F938F93ED
:100EE0009F93EF93FF938091420490E0FC01EE0FFB
:100EF000FF1FE80FF91FEE0FFF1FEE0FFF1FE65D4C
:100F0000FB4F8381813009F4A2C02091420430E07C
:100F1000C901880F991FFC01E20FF31FEE0FFF1F9D
:100F2000EE0FFF1FE65DFB4F42855385FC01E20F8C
:100F3000F31FEE0FFF1FEE0FFF1FE65DFB4F41504B
:100F40005109538742878091420490E0FC01EE0FE3
:100F5000FF1FE80FF91FEE0FFF1FEE0FFF1FE65DEB
:100F6000FB4F82859385892B09F05AC080914204FA
:100F700090E0FC01EE0FFF1FE80FF91FEE0FFF1FBF
:100F8000EE0FFF1FE65DFB4F81E0838380914204FB
:100F900090E0FC01EE0FFF1FE80FF91FEE0FFF1F9F
:100FA000EE0FFF1FE65DFB4F808121E030E002C0C5
:100FB000220F331F8A95E2F78091420490E0FC01F2
:100FC000EE0FFF1FE80FF91FEE0FFF1FEE0FFF1FC1
:100FD000E65DFB4F0180F281E02D8081822B8083D2
:100FE000209142048091420490E030E0F901EE0F3C
:100FF000FF1FE20FF31FEE0FFF1FEE0FFF1FE65D57
:10100000FB4F26813781FC01EE0FFF1FE80FF91F10
:10101000EE0FFF1FEE0FFF1FE65DFB4F33872287AA
:10102000809142048F5F8093420480914204823019
:1010300009F49AC0FF91EF919F918F915F914F9129
:101040003F912F910F900FBE0F901F9018952091F8
:10105000420430E0C901880F991FFC01E20FF31F21
:10106000EE0FFF1FEE0FFF1FE65DFB4F4085518522
:10107000FC01E20FF31FEE0FFF1FEE0FFF1FE65DF7
:10108000FB4F41505109518740878091420490E0C5
:10109000FC01EE0FFF1FE80FF91FEE0FFF1FEE0F11
:1010A000FF1FE65DFB4F80859185892B09F0B8CF46
:1010B0008091420490E0FC01EE0FFF1FE80FF91F42
:1010C000EE0FFF1FEE0FFF1FE65DFB4F13828091B7
:1010D000420490E0FC01EE0FFF1FE80FF91FEE0F36
:1010E000FF1FEE0FFF1FE65DFB4F208181E090E0C8
:1010F00002C0880F991F2A95E2F78095909520915C
:10110000420430E0F901EE0FFF1FE20FF31FEE0F74
:10111000FF1FEE0FFF1FE65DFB4F0180F281E02D08
:10112000908189238083209142048091420490E041
:1011300030E0F901EE0FFF1FE20FF31FEE0FFF1F6C
:10114000EE0FFF1FE65DFB4F24813581FC01EE0FA2
:10115000FF1FE80FF91FEE0FFF1FEE0FFF1FE65DE9
:10116000FB4F318720875CCF1092420463CF1F92E0
:101170000F920FB60F9211248F939F938091470483
:1011800090914804019690934804809347049F915E
:101190008F910F900FBE0F901F9018951F920F9276
:1011A0000FB60F9211240F931F932F933F934F93DA
:1011B0005F936F937F938F939F93AF93BF93CF93DF
:1011C000EF93FF938091430490914404A0914504D0
:1011D000B09146040196A11DB11D809343049093E4
:1011E0004404A0934504B093460480910A018150C1
:1011F00080930A01C0910A01C11501F1FF91EF919D
:10120000CF91BF91AF919F918F917F916F915F919E
:101210004F913F912F911F910F910F900FBE0F9003
:101220001F9018950C2F10E08C2F0E947906000F4C
:10123000111FF801EA5DFB4F8183CF5FC23090F34D
:1012400081E080930A01DACFE0EBF0E080818160F9
:101250008083E1EBF0E080818B6080838FEF80936F
:10126000B300E0E7F0E080818260808378940895A5
:101270002FB7F89460914304709144048091450421
:10128000909146042FBF0895CF93C82F8A3051F014
:101290009091C00095FFFCCFC093C60080E090E025
:1012A000CF9108958DE00E944409F2CF8091C00053
:1012B0008115E4F78091C60090E008951092C50072
:1012C00083E08093C400E0ECF0E080818D7F808338
:1012D00086E08093C20088E18093C10008950E9457
:1012E0005E09E8E4F3E089E191E0938382838BE097
:1012F00091E0918380830895E9EBF0E080818C7F19
:10130000808388E48093B800089580934C04ECEBCC
:10131000F0E08081846A80838091BC008115E4F7CD
:101320008091B900887F883031F0803111F08EEFE4
:1013300008958FEF08958FEF0895880F90914C04D2
:10134000892B8093BB0084E88093BC008091BC0013
:101350008115E4F780914C0481110BC08091B90094
:10136000887F803299F0883399F0883199F48FEF33
:101370000895813011F080E008958091B900887F50
:10138000803411F08EEF08958FEF08958EEF089559
:101390008EEF08958EEF08958093BB00ECEBF0E0A4
:1013A0008081806880838091BC008115E4F7809102
:1013B000B900887F803331F0883331F0883231F4DE
:1013C0008FEF08958EEF08958EEF08958EEF0895B4
:1013D000ECEBF0E08081806980838091BC0084FD2B
:1013E000FCCF0895CF93C82F80E00E9485098C2FF1
:1013F0000E949D09CF9108950E94E80908950E94D6
:10140000CC090895CF93C82F8CE30E94F20980E0A5
:101410000E94FF098C2F0E94FF090E94FC09CF91B6
:101420000895CF93DF9381E20E94020A80E00E9438
:10143000020A8FE70E94020A82E20E94020A80E00A
:101440000E94020A87E00E94020A8CE30E94F209CD
:1014500080E40E94FF09C0E0D0E004C080E00E9468
:10146000FF092196C11584E0D807C4F381E20E94E8
:10147000020A80E00E94020A8FE70E94020A82E2CA
:101480000E94020A80E00E94020A87E00E94020A8B
:101490008CE30E94F20980E40E94FF09DF91CF9162
:1014A00008950E947C098EEA0E94020A85ED0E943E
:1014B000020A80E80E94020A88EA0E94020A8FE378
:1014C0000E94020A83ED0E94020A80E00E94020A42
:1014D00080E40E94020A8DE80E94020A84E10E94D0
:1014E000020A80E20E94020A80E00E94020A81EA67
:1014F0000E94020A88EC0E94020A8AED0E94020AF7
:1015000082E10E94020A81E80E94020A8FEC0E9496
:10151000020A89ED0E94020A81EF0E94020A8BED05
:101520000E94020A80E40E94020A84EA0E94020ADF
:1015300086EA0E94020A8FEA0E94020A0E94110AA9
:101540000895CF93DF93C82FD62F883010F46115FC
:101550001CF4DF91CF91089580934E0460934D0465
:1015600081E20E94020A8D2F0E94020A8FE70E94E8
:10157000020A82E20E94020A8C2F0E94020A87E07D
:101580000E94020A8CE30E94F20980E40E94FF0993
:10159000E0CF80914E048F5F80934E0487708093DC
:1015A0004E0460E00E94A10A0895CF93DF93D82FE4
:1015B00080914D048B3750F5DA3029F1D052C0E0DC
:1015C0002D2F30E0F901EE0FFF1FEE0FFF1FE20F8E
:1015D000F31FE759FE4FEC0FF11D80810E94FF09B8
:1015E00090914D049F5F90934D04CF5FC53041F7BC
:1015F00080E00E94FF0980914D048F5F80934D042D
:10160000DF91CF9108950E94C90AFACF0E94C90ABA
:10161000DA30A1F6F5CFCF93DF93C82FD92F03C0CF
:1016200021960E94D50A88818111FACFDF91CF914E
:101630000895AF92BF92CF92DF92EF92FF920F93F5
:101640001F93CF93DF93CDB7DEB72A970FB6F894E9
:10165000DEBF0FBECDBFB82EC42ED52EE62EF72E80
:10166000022F22E0821759F0C114D104E104F104E1
:1016700011F110E036C0805D0E94D50A01500115BD
:1016800009F463C0202F2150330B41E050E002C029
:10169000440F551F2A95E2F7052E000C660B770BB9
:1016A0004C215D216E217F2181E0452B462B472B6C
:1016B00011F780E0E0CF10E0101708F046C01A30B4
:1016C00008F043C080E30E94D50A1F5FF5CF0B30BE
:1016D00058F5E1E0F0E0EC0FFD1FE10FF11D108285
:1016E0001F5F101708F5C114D104E104F10479F368
:1016F000AC2C2B2D30E040E050E0C701B6010E9439
:10170000E50FC22ED32EE42EF52EB29EA018112482
:10171000E1E0F0E0EC0FFD1FE10FF11DA082E0CF52
:10172000805D0E94D50A1150111579F0812F8150EA
:10173000990BFC0121E030E02C0F3D1FE20FF31F5D
:1017400080818A3068F3895CECCF2A960FB6F894D2
:10175000DEBF0FBECDBFDF91CF911F910F91FF90E4
:10176000EF90DF90CF90BF90AF900895CF92DF922F
:10177000EF92FF920F931F93CF93DF93062F172FB4
:10178000D82FC92F0E94B110C62ED72EE82EF92EC1
:101790002FEF462F572F682F792F8AE00E94190BC1
:1017A0008EE20E94D50A6C2D7D2D8E2D9F2D0E94DC
:1017B000E010262F372F482F592F602F712F8D2F94
:1017C0009C2F0E94441020E034E244E759E40E9438
:1017D0006E110E94B110462F572F682F792F2FEFCF
:1017E0008AE00E94190BDF91CF911F910F91FF901A
:1017F000EF90DF90CF9008958F929F92AF92BF921B
:10180000CF92DF92EF92FF920F931F93CF93DF93CC
:1018100000D0CDB7DEB7FE01719601911191FA8328
:10182000E983DBC0812F880F880F810F182F110FDC
:10183000190F1053FFEFEF1AFF0AF701908180EDA7
:10184000890F8A3078F3DBC010E0F9CFE981FA81A3
:10185000CF0102969A83898380810E94D50ABAC0FB
:10186000E981FA81CF0102969A838983C080D18071
:10187000DD204CF0A601DD0C660B770B212F8AE0F2
:101880000E94190BA7C0D194C194D1088DE20E9487
:10189000D50AF0CFE981FA81CF0104969A83898332
:1018A00080809180A280B380BB203CF0212FB501C5
:1018B000A4018AE00E94190B8DC0B094A09490946A
:1018C0008094811C911CA11CB11C8DE20E94D50A40
:1018D000EDCFE981FA81CF0102969A838983408115
:1018E000518160E070E0212F8AE00E94190B72C0E4
:1018F000E981FA81CF0104969A83898340815181DD
:1019000062817381212F8AE00E94190B63C0E981F3
:10191000FA81CF0102969A8389834081518160E0E8
:1019200070E0212F80E10E94190B54C0E981FA81F7
:10193000CF0104969A8389834081518162817381AA
:10194000212F80E10E94190B45C0E981FA81CF0166
:1019500002969A838983408151811F3F39F060E06C
:1019600070E0212F82E00E94190B34C010E1F7CF04
:10197000E981FA81CF0104969A838983408151815C
:10198000628173811F3F29F0212F82E00E94190B91
:1019900021C010E1F9CFE981FA81CF0104969A8341
:1019A000898360817181828193810E94B60B12C00C
:1019B000E981FA81CF0102969A838983808191819E
:1019C0000E940B0B07C085E20E94D50A03C00E944B
:1019D000D50A780187010F5F1F4FF80180818115BB
:1019E000B9F08532A1F778018FEFE81AF80AF8010B
:1019F000918180ED890F8A3008F426CF1FEFEBED3F
:101A0000E90FE43538F7F0E0E853FB4E0C9407108B
:101A10000F900F90DF91CF911F910F91FF90EF905A
:101A2000DF90CF90BF90AF909F908F900895DC0192
:101A3000ED91FC91848160FB81F984830895CF93BB
:101A4000DF93C82FD92FEA81FB81CE010995E88168
:101A5000F981838180FD05C080E090E0DF91CF9126
:101A600008958E7F838381E090E0F8CFE82FF92FEF
:101A7000A081B18113968C9113978E7F13968C93CE
:101A8000A081B18113968C9113978D7F13968C93BF
:101A9000A081B18113968C9113978B7F13968C93B1
:101AA000A081B18113968C911397877F13968C93A5
:101AB000A081B18113968C9113978F7E13968C938E
:101AC000A081B18113968C9113978F7D13968C937F
:101AD000A081B18113968C9113978F7B13968C9371
:101AE000A081B18113968C9113978F7713968C9365
:101AF000A081B18114968C9114978E7F14968C934B
:101B0000A081B18114968C9114978D7F14968C933B
:101B10000190F081E02D84818B7F84830895CF93A1
:101B2000DF93C82FD92FEA81FB81CE010995E88187
:101B3000F9818581843029F080E090E0DF91CF91B8
:101B40000895158281E090E0F9CFCF93DF93C82FFD
:101B5000D92FEA81FB81CE010995E881F981858140
:101B6000833029F080E090E0DF91CF9108951582D5
:101B700081E090E0F9CFCF93DF93C82FD92FEA818E
:101B8000FB81CE010995E881F981838183FD05C040
:101B900080E090E0DF91CF910895877F838381E09B
:101BA00090E0F8CFCF93DF93C82FD92FEA81FB8144
:101BB000CE010995E881F981838184FD05C080E02B
:101BC00090E0DF91CF9108958F7E838381E090E054
:101BD000F8CF0E94D20D0895CF93DF93C82FD92F4D
:101BE000EA81FB81CE010995E881F981838186FD37
:101BF00005C080E090E0DF91CF9108958F7B8383D3
:101C000081E090E0F8CFCF93DF93C82FD92FEA81FE
:101C1000FB81CE010995E881F981838181152CF042
:101C200080E090E0DF91CF9108958F77838381E00A
:101C300090E0F8CFCF93DF93C82FD92FEA81FB81B3
:101C4000CE010995E881F981848180FD05C080E09D
:101C500090E0DF91CF9108958E7F848381E090E0C2
:101C6000F8CF1F93CF93DF93C82FD92F672B89F01D
:101C700010E0E881F981612F80810E94CD06E88122
:101C8000F981612F81810E94CD06DF91CF911F9153
:101C9000089512E0EECFE82FF92F672B41F060E0B6
:101CA0000190F081E02D82810E94CD06089562E0CE
:101CB000F7CFCF93DF93C82FD92FEA81FB81CE01D5
:101CC0000995E881F9818581823029F080E090E0F2
:101CD000DF91CF9108958EE591E00E943C14E88158
:101CE000F981158281E090E0F3CFCF93DF93C82F85
:101CF000D92FEA81FB81CE010995E881F98185819F
:101D0000813029F080E090E0DF91CF91089584E662
:101D100091E00E943C14E881F981158281E090E015
:101D2000F3CF8F929F92AF92BF92CF92DF92EF92BA
:101D3000FF920F931F93CF93DF93C82FD92F0E9449
:101D40003809C62ED72EE82EF92EE881F981868132
:101D50009781A085B18546015701881A990AAA0A78
:101D6000BB0A838180618383E881F98183818F7DD0
:101D70008383E881F98183818F7B8383E881F98183
:101D800080810E949F06182FE881F98181810E943D
:101D90009F06110F012F082BE881F9819285990F79
:101DA000990F192F102B82810E949F0681111CC050
:101DB00085EF881681E09806A104B104A8F0E881B7
:101DC000F981838188608383E881F98183818062DE
:101DD0008383E881F981C682D782E086F186E88133
:101DE000F98183818E7F83831D3031F0143021F09F
:101DF000123011F01B3031F489EC88169104A104E3
:101E0000B104F0F41E3031F0173021F0113011F030
:101E1000183031F489EC88169104A104B10480F5DE
:101E2000E881F9810287DF91CF911F910F91FF9097
:101E3000EF90DF90CF90BF90AF909F908F900895DC
:101E4000E881F981838181608383E881F9818381DD
:101E500082608383E881F981C682D782E086F18639
:101E6000E881F98181E08583E881F98182810E949E
:101E70009F068111D5CFE881F98183E08583D0CF9A
:101E8000E881F981838181608383E881F98183819D
:101E900084608383E881F981C682D782E086F186F7
:101EA000E881F98182E08583E881F98182810E945D
:101EB0009F068111B5CFE881F98184E08583B0CF99
:101EC000DF92EF92FF920F931F93CF93DF93D82E61
:101ED000E62EF42E8BE090E00E94DB11082F192FE4
:101EE00082E290E00E94DB11C82FD92FF801D08246
:101EF000E18215821682178210861186F28262E0D4
:101F00008F2D0E94CD061983088381E99EE09B8373
:101F10008A8381E39EE09D838C838BE49EE09F8394
:101F20008E8387E19DE0998788878FE19DE09B877D
:101F30008A8789E59EE09D878C8785E79EE09F875D
:101F40008E878FE89DE0998B888B85EA9DE09B8B3F
:101F50008A8B8BEB9DE09D8B8C8B82ED9DE09F8B24
:101F60008E8B89EE9DE0998F888F8CEE9DE09B8F04
:101F70008A8F83E09EE09D8F8C8F8AE19EE09F8F09
:101F80008E8F86E39DE099A388A362E0F8018081AB
:101F90000E94CD0662E0F80181810E94CD06F80121
:101FA00080810E949F06F82EF80181810E949F0681
:101FB000FF0CF82AF801F286CE01DF91CF911F9134
:101FC0000F91FF90EF90DF900895A1E21A2EAA1BC7
:101FD000BB1BFD010DC0AA1FBB1FEE1FFF1FA217D9
:101FE000B307E407F50720F0A21BB30BE40BF50BD6
:101FF000661F771F881F991F1A9469F7609570955F
:10200000809590959B01AC01BD01CF010895EE0F25
:10201000FF1F0590F491E02D09942F923F924F926B
:102020005F926F927F928F929F92AF92BF92CF9268
:10203000DF92EF92FF920F931F93CF93DF93CDB771
:10204000DEB7CA1BDB0B0FB6F894DEBF0FBECDBFE9
:1020500009942A88398848885F846E847D848C84BA
:102060009B84AA84B984C884DF80EE80FD800C81C3
:102070001B81AA81B981CE0FD11D0FB6F894DEBFA6
:102080000FBECDBFED0108955058BB27AA270E946F
:102090005C100C9434110E94261138F00E942D110E
:1020A00020F039F49F3F19F426F40C9423110EF418
:1020B000E095E7FB0C941D11E92F0E94451158F3A0
:1020C000BA17620773078407950720F079F4A6F51D
:1020D0000C9467110EF4E0950B2EBA2FA02D0B0176
:1020E000B90190010C01CA01A0011124FF27591B5D
:1020F00099F0593F50F4503E68F11A16F040A22F63
:10210000232F342F4427585FF3CF469537952795D3
:10211000A795F0405395C9F77EF41F16BA0B620BD2
:10212000730B840BBAF09150A1F0FF0FBB1F661F19
:10213000771F881FC2F70EC0BA0F621F731F841F5C
:1021400048F4879577956795B795F7959E3F08F082
:10215000B0CF9395880F08F09927EE0F9795879544
:1021600008950E944D1188F09F5798F0B92F992734
:10217000B751B0F0E1F0660F771F881F991F1AF072
:10218000BA95C9F714C0B13091F00E946711B1E05F
:1021900008950C946711672F782F8827B85F39F05E
:1021A000B93FCCF3869577956795B395D9F73EF40B
:1021B00090958095709561957F4F8F4F9F4F0895B3
:1021C000E89409C097FB3EF49095809570956195D1
:1021D0007F4F8F4F9F4F9923A9F0F92F96E9BB2787
:1021E0009395F695879577956795B795F111F8CF03
:1021F000FAF4BB0F11F460FF1BC06F5F7F4F8F4F6E
:102200009F4F16C0882311F096E911C0772321F063
:102210009EE8872F762F05C0662371F096E8862FFB
:1022200070E060E02AF09A95660F771F881FDAF752
:10223000880F9695879597F9089597F99F6780E895
:1022400070E060E008959FEF80EC089500240A9408
:102250001616170618060906089500240A94121681
:102260001306140605060895092E0394000C11F4B4
:10227000882352F0BB0F40F4BF2B11F460FF04C061
:102280006F5F7F4F8F4F9F4F089557FD9058440FBA
:10229000551F59F05F3F71F04795880F97FB991FC5
:1022A00061F09F3F79F08795089512161306140682
:1022B000551FF2CF4695F1DF08C01616170618060F
:1022C000991FF1CF86957105610508940895E894EA
:1022D000BB2766277727CB0197F908950E948111C4
:1022E0000C9434110E94261138F00E942D1120F018
:1022F000952311F00C941D110C94231111240C94AE
:1023000068110E94451170F3959FC1F3950F50E03D
:10231000551F629FF001729FBB27F00DB11D639F97
:10232000AA27F00DB11DAA1F649F6627B00DA11D3D
:10233000661F829F2227B00DA11D621F739FB00DE3
:10234000A11D621F839FA00D611D221F749F332753
:10235000A00D611D231F849F600D211D822F762FEC
:102360006A2F11249F5750409AF0F1F088234AF0C9
:10237000EE0FFF1FBB1F661F771F881F9150504035
:10238000A9F79E3F510580F00C941D110C94681123
:102390005F3FE4F3983ED4F3869577956795B795BC
:1023A000F795E7959F5FC1F7FE2B880F911D9695D6
:1023B000879597F908950F931F93CF93DF939C010F
:1023C000029710F422E030E0E0914403F0914503DD
:1023D00080E090E0A0E0B0E0309791F4009709F43D
:1023E00048C0821B930B84309105D0F58A819B8174
:1023F0006115710581F1FB0193838283FE0111C098
:10240000408151810281138142175307D8F042174E
:10241000530799F4109761F012960C931297139644
:102420001C933296CF01DF91CF911F910F910895A8
:102430000093440310934503F4CF009751F04817DD
:10244000590738F0AC01DB01CA01BD01DF01F80119
:10245000C3CFEF01F9CF9093450380934403CECFD0
:10246000FE01E80FF91F2193319302979983888326
:10247000D9CF8091460390914703892B41F48091F5
:10248000020190910301909347038093460380914A
:10249000000190910101009741F48DB79EB74091E2
:1024A000040150910501841B950B40914603509106
:1024B00047034817590708F0B5CF841B950B8217BF
:1024C000930708F4AFCFB9016E5F7F4F8617970768
:1024D00008F4A8CF640F751F7093470360934603F9
:1024E000FA01219331939ECFCF93DF939C01009704
:1024F000D9F0FC01329713821282C0914403D0912B
:102500004503209709F058C080819181280F391F19
:1025100080914603909147038217930709F06DC09D
:10252000F0934703E0934603DF91CF910895AE17F0
:10253000BF0708F048C0CD0112960D90BC91A02DA8
:102540001097A9F7DC011396FC93EE9312974D9127
:102550005D919D01240F351FE217F30781F420815F
:1025600031812E5F3F4F240F351FDC0111963C93C4
:102570002E932281338113963C932E931297E0E0A1
:10258000F0E08A819B810097E9F5DE018D919D91B4
:102590008A0F9B1F20914603309147032817390764
:1025A00019F6309791F51092450310924403D09399
:1025B0004703C0934603B8CFDE0180E090E0CE171A
:1025C000DF0708F4B8CFB383A28340815181240F81
:1025D000351FA217B30771F44E5F5F4F2D913C91E9
:1025E0001197240F351F3183208312962D913C9132
:1025F00033832283009709F0A5CFF0934503E0933E
:10260000440392CFFE01EC01BCCF13821282CFCFE4
:10261000283008F027E03327DA01990F311D87FDB4
:10262000916000966105710539F432602E5F3D932B
:1026300030E32A95E1F708959F3F30F08038710527
:10264000610509F03C5F3C5F3D93913008F0806884
:10265000911DDF93CF931F930F93FF92EF92192F4A
:10266000987F9695E92F96959695E90FFF27E65363
:10267000FF4F99273327EE24FF24A701E701059098
:102680000894079428F4360FE71EF81E491F511DC1
:10269000660F771F881F991F0694A1F7059007946E
:1026A00028F4E70EF81E491F561FC11D770F881F1B
:1026B000991F661F0694A1F70590079428F4F80E59
:1026C000491F561FC71FD11D880F991F661F771FEF
:1026D0000694A1F70590079420F4490F561FC71FD1
:1026E000D81F990F661F771F881F0694A9F784913A
:1026F0001095177041F0D695C79557954795F79463
:10270000E7941A95C1F7E0E7F0E068941590159109
:1027100035916591959105907FE27395E118F10AE5
:10272000430B560BC90BD009C0F7E10CF11E431F38
:10273000561FC91FD01D7EF4703311F48A95E6CF61
:10274000E894015030F0080F0AF40027021708F44B
:10275000202F2395022F7A3328F079E37D932A9551
:10276000E9F710C07D932A9589F6069497956795A9
:10277000379517951794E118F10A430B560BC90BBF
:10278000D00998F023957E9173957A3308F070E321
:102790007C932013B8F77E9170617D9330F0839520
:1027A00071E37D9370E32A95E1F71124EF90FF9098
:1027B0000F911F91CF91DF91992787FD90950895F3
:1027C000FC010590615070400110D8F780959095FC
:1027D0008E0F9F1F0895FC01615070400190011001
:1027E000D8F7809590958E0F9F1F08950F931F9394
:1027F000CF93DF93182F092FEB018B8181FD09C047
:102800001FEF0FEF812F902FDF91CF911F910F912D
:10281000089582FF14C02E813F818C819D812817ED
:1028200039073CF4E881F981CF01019699838883C7
:1028300010838E819F8101969F838E83E3CFE885ED
:10284000F985812F0995892BA1F3DACFA0E0B0E0BB
:10285000ECE2F4E10C941D10AE014B5F5F4FFA0106
:1028600061917191AF0180914A0390914B030E9455
:10287000E000E2E00C9439100F931F93CF93DF93A5
:10288000E0914A03F0914B03238100E010E021FD29
:102890000EC00FEF1FEFC801DF91CF911F910F9175
:1028A00008950995892B11F00FEF1FEFCE01EC0170
:1028B000899160914A0370914B03DB011896ED9169
:1028C000FC918111EECF8AE00995892B21F3E1CFAC
:1028D000FA01AA27283051F1203181F1E8946F9351
:1028E0006E7F6E5F7F4F8F4F9F4FAF4FB1E03ED0F7
:1028F000B4E03CD0670F781F891F9A1FA11D680F95
:10290000791F8A1F911DA11D6A0F711D811D911DC7
:10291000A11D20D009F468943F912AE0269F11243C
:102920003019305D3193DEF6CF010895462F4770A0
:10293000405D4193B3E00FD0C9F7F6CF462F4F70FB
:10294000405D4A3318F0495D31FD4052419302D059
:10295000A9F7EACFB4E0A6959795879577956795FF
:10296000BA95C9F700976105710508959B01AC01FF
:102970000A2E06945795479537952795BA95C9F726
:10298000620F731F841F951FA01D0895F894FFCF39
:10299000E30CEA0CEA0CEA0CEA0CEA0CEA0CEA0C8E
:1029A000EA0CEA0CEA0CEA0CEA0CEA0CEA0CEA0C77
:1029B000EA0CEA0CEA0CEA0CEA0CEA0CEA0CEA0C67
:1029C000EA0CEA0CEA0CEA0CEA0CB80C260C4A0CED
:1029D000EA0CCB0CEA0CEA0CEA0CEA0CEA0CEA0C66
:1029E000EA0CEA0CEA0CEA0CEA0CEA0CD80CEA0C49
:1029F000780CEA0CEA0C960CEA0CEA0CEA0CEA0CED
:102A0000EA0CEA0CEA0CEA0CEA0CA50C260C300CD9
:102A1000EA0CCB0CEA0CEA0CEA0CEA0CEA0CEA0C25
:102A2000EA0CEA0CEA0CEA0CEA0CEA0CD80CEA0C08
:082A3000690CEA0CEA0C870CAA
:102A380000004F04200002C87017010000000100C8
:102A4800000000000056090000000000020000001D
:102A580000440900000000636C65616E00646973DE
:102A6800746F7274696F6E0064656C617900626975
:102A78007420637275736865720025730A25640A89
:102A880000653A2025730A633A2025640A007269B2
:102A9800676874006C656674000000000000000040
:102AA8002F00000007000700147F147F14242A7FDA
:102AB8002A12231308646236495522500005030080
:102AC80000001C2241000041221C0014083E08148A
:102AD80008083E08080000A0600008080808080068
:102AE8006060000020100804023E5149453E004243
:102AF8007F400042615149462141454B311814122B
:102B08007F1027454545393C4A4949300171090537
:102B1800033649494936064949291E003636000018
:102B2800005636000008142241001414141414002E
:102B3800412214080201510906324959513E7C12BA
:102B480011127C7F494949363E414141227F41412A
:102B5800221C7F494949417F090909013E414949E8
:102B68007A7F0808087F00417F41002040413F01EB
:102B78007F081422417F404040407F020C027F7F43
:102B88000408107F3E4141413E7F090909063E4144
:102B980051215E7F09192946464949493101017F7A
:102BA80001013F4040403F1F2040201F3F40384028
:102BB8003F631408146307087008076151494543C7
:102BC800007F41410055AA55AA550041417F0004A4
:102BD8000201020440404040400003050000205428
:102BE8005454787F48444438384444442038444452
:102BF800487F3854545418087E09010218A4A4A424
:102C08007C7F0804047800447D40004080847D0077
:102C18007F1028440000417F40007C041804787C21
:102C2800080404783844444438FC2424241818241C
:102C38002418FC7C080404084854545420043F44D5
:102C480040203C4040207C1C2040201C3C40304020
:102C58003C44281028441CA0A0A07C4464544C4444
:102C680000107C82000000FF000000827C10000041
:042C7800060909063A
:00000001FF
